:020000040800F2
:1000000070070020010100088B2200084D21000824
:1000100089220008710900088D25000800000000F1
:100020000000000000000000000000008F22000817
:10003000DD0A0008000000008D220008912200085F
:100040001B0100081B0100081B0100081B01000820
:100050001B0100081B0100081B0100081B01000810
:100060001B0100081B0100081B010008DD09000836
:100070001B0100081B0100081B0100081B010008F0
:100080001B0100081B0100081B0100081B010008E0
:100090001B0100081B0100081B0100081B010008D0
:1000A0001B0100081B0100081B0100081B010008C0
:1000B0001B0100081B0100081B0100081B010008B0
:1000C0001B0100081B0100081B0100081B010008A0
:1000D0001B010008812500081B0100081B01000806
:1000E0001B0100081B0100081B010008DFF80CD0F1
:1000F00000F068FB00480047BD2E00087007002094
:100100000648804706480047FEE7FEE7FEE7FEE7B1
:10011000FEE7FEE7FEE7FEE7FEE7FEE7F522000862
:10012000ED000008202A04DB203A21FA02F0002129
:10013000704721FA02F3D040C2F1200291400843F7
:1001400019467047D2B201E000F8012B491EFBD2DC
:1001500070470022F6E710B513460A4604461946D2
:10016000FFF7F0FF204610BD80EA010210B502F053
:100170000043400022D04A001FD0010E01EB126163
:10018000C0F35600C2F3560240F4000042F40002ED
:10019000A0FB022000047F39140400D0401C50EA68
:1001A000124001D44000491EC2B20C0604EBD0102C
:1001B000401C4008802A02D003E0002010BD20F03F
:1001C0000100002900DA0020184310BD420005D0CC
:1001D000C0F3C7525242914201DC0020704700EB4D
:1001E000C150704770B521F0004303430CD0C1F3F8
:1001F0000A550024D5EB040564EB0403D617AD1AA9
:10020000B34102DB0020014670BD201841EB0251D2
:1002100070BD96230022114600F090B80EB5C10FB4
:1002200080EAE0700844CA07002140F233438DE8B9
:100230000E000A460B4600F0BEF803B000BD00F009
:10024000004230F000400AD0C10D01F56071C0F3EA
:10025000160042EA0151C2084007114370470020CE
:100260000146704701F0004330B421F0004150EAEC
:10027000010206D00A0DA2F56072C1F31301002A33
:1002800002DC30BC00207047440F44EAC104C100C6
:10029000E01830BC00EBC25000F047B830B50B4658
:1002A000014600202022012409E021FA02F59D42A6
:1002B00005D303FA02F5491B04FA02F52844151E7A
:1002C000A2F10102F1DC30BD2DE9F05F054600200E
:1002D00092469B4688460646814640241BE02846B7
:1002E000414647462246FFF71DFF53465A46C01A6D
:1002F000914110D311461846224600F075FA2D1A86
:1003000067EB01084F4622460120002100F06CFAFD
:1003100017EB00094E41201EA4F10104DFDC484622
:1003200031462A464346BDE8F09F0029A8BF7047E2
:10033000401C490008BF20F00100704710B4B0FA1B
:1003400080FC00FA0CF050EA010404BF10BC7047B6
:1003500049B1CCF1200421FA04F411FA0CF118BFD0
:10036000012121430843A3EB0C01CB1D4FEA00619F
:100370004FEA102042BF002010BC704700EBC35072
:1003800010440029A4BF10BC7047401C490008BF9E
:1003900020F0010010BC704710B5141E73F100046A
:1003A00008DA401C41F1000192185B411A4301D167
:1003B00020F0010010BD2DE9F04D92469B4611B191
:1003C000B1FA81F202E0B0FA80F22032904600F0F9
:1003D0000BFA04460F4640EA0A0041EA0B01534675
:1003E0005A46084313D0114653EA010019D0C8F108
:1003F00040025046FFF796FE05460E4650465946C7
:10040000424600F0F1F9084305D0012004E02046FF
:100410003946BDE8F08D0020054346EAE0762C43DE
:1004200037430A986305E40AA0EB08000022FD0A9E
:1004300044EA47540A3002D500200146E9E70105A5
:1004400010196941DDE9084500196941BDE8F04D21
:10045000A2E72DE9FE4F804681EA0300C00F0C465B
:10046000009021F0004123F00045B8EB0200A941C3
:1004700005D24046214690461C460B46024623F0D4
:100480000040104347D0270DC7F30A00C3F30A51B9
:100490000290401A019040286BDAC3F3130040F435
:1004A000801B0098924620B10023D2EB030A63EB35
:1004B0000B0B01985946C0F14002504600F094F9E8
:1004C00006460D4650465946019A00F09CF910EB3D
:1004D00008006141002487EA115284EAE7731A4355
:1004E00040D0009A62B3019A012A4FEA075215DC04
:1004F000001B61EB02014FF0004202EA0752CDE916
:100500000042001C41F5801132462B46FFF753FF95
:1005100003B0BDE8F08F40462146F9E7001B61EBD0
:100520000201001C41F5801300185B412018A2F560
:10053000001747EB030140EAD570B6196D4111E091
:100540006D084FEA360645EAC0754FEA0752001BB0
:1005500061EB0201001C41F5801149084FEA3000AF
:100560000019514132462B4603B0BDE8F04FFFF76A
:1005700013BF0098012240000023D0EB020263EB7E
:10058000E073009821464FEAE074B8EB000061EB9D
:100590000401E9E783F000435BE781F0004158E79D
:1005A0002DE9FE4F81EA030404F0004421F00041EC
:1005B00000944FF0000B23F0004350EA01045ED09A
:1005C00052EA03045BD0C3F30A54C1F30A552C4426
:1005D000A4F2F3340194A0FB0254C1F3130141F4DB
:1005E0008011C3F3130343F4801301FB024400FBA7
:1005F000034E840A970A44EA815447EA8357A4FBCE
:10060000076802958D0A05FB07854FEA932C04FBCA
:100610000C542705029D4FEA065847EA1637B5EBFA
:1006200008056EEB070C870E920E47EA811742EA27
:100630008312A7FB0201B6EB0B0164EB00042B0D48
:1006400043EA0C335E1844EB1C50DA465146E7FB94
:100650000201C5F313044FEA0B3343EA14534FEA84
:100660000432019C43EA0603A4F10C040294009CAA
:10067000CDE900B4FFF79FFE03B0BDE8F08F002086
:100680000146F9E72DE9F04D81EA030404F0004B3F
:1006900021F0004514464FF0000A23F0004150EAD3
:1006A000050220D054EA01021DD0C5F30A570246C4
:1006B000C5F31303C1F31300C1F30A5640F48015C8
:1006C00043F48013A7EB0608101BD64608F2FD384A
:1006D00073EB050002D308F1010801E092185B41B9
:1006E000B8F1000F03DA00200146BDE8F08D0020CC
:1006F0004FF48011064684460EE0171B73EB050786
:1007000005D3121B63EB050306434CEA010C4908B1
:100710004FEA300092185B4150EA0107EDD152EAEE
:10072000030012D082EA040083EA0501084305D0E1
:10073000101BAB4106D20122002306E000224FF03D
:10074000004302E06FF0010253101AEB06004CEB7D
:10075000085110EB0A0041EB0B01BDE8F04DFFF72B
:100760001BBEC1F30A52C1F3130140F2FF3341F43F
:1007700080119A4202DA00200146704740F233436A
:100780009A42A2F2334202DC5242FFF7CBBC00F0A5
:100790002BB8000030B5041E71F1000404DB4FF0EB
:1007A0000044404264EB0101141E73F1000405DBB8
:1007B0001C464FF00043524263EB0403994208BFCA
:1007C000904230BD064C074D06E0E06840F0010362
:1007D00094E8070098471034AC42F6D3FFF78AFC40
:1007E0002030000840300008202A04DB203A00FABC
:1007F00002F1002070479140C2F1200320FA03F378
:10080000194390407047202A06DBCB17203A41FA63
:1008100002F043EAE07306E041FA02F3D040C2F18D
:1008200020029140084319467047000070B5044605
:1008300000688168C943C90717D1816821F00101A7
:10084000816000F097FE05460AE000BF00F092FECE
:10085000401B022804D920688068C043C00706D026
:1008600020688068C043C007F0D0002070BDA06A37
:1008700040F01000A062E06A40F00100E062012058
:1008800070BD10B50146406A826A12F0500F05D063
:10089000006A026BBDE8104008461047816A41F4C7
:1008A0000071816201688968C1F3424107290CD156
:1008B000017B51B9816A21F480718162816AC90426
:1008C00003D4816A41F00101816200F069FA10BD30
:1008D00010B5406A816A41F040018162C16A41F00D
:1008E0000401C16200F05EFA10BD10B5406A00F06C
:1008F00058FA10BDF8B500260446009600688168D5
:10090000C943C9072DD0816841F0010181601648B3
:1009100016490068B0FBF1F000E0401E009000288E
:10092000FBD100F027FE054616E000BF00F022FED6
:10093000401B022810D920688068C043C0070BD034
:10094000A06A40F01000A062E06A40F00100E0629E
:1009500084F824600120F8BD20688068C043C00787
:10096000E4D10020F8BD00001C00002040420F0030
:10097000FEE700000648016841F08071016005480B
:1009800000214160016841F00101016070470000F1
:10099000FCED00E0001000E011B50022FFF7EAFFD7
:1009A0000B480C490C4C0068B0FBF1F300986168EF
:1009B000434360688842FCD002D9A0EB010102E009
:1009C0006FEA010101440A4401469A42F1D318BD7D
:1009D0001C00002040420F00001000E0014800F021
:1009E000ADBB0000E402002030B590F84050012477
:1009F000AC40C56B6C60046863604368102B03688F
:100A000003D099600068C26030BD9A600068C16020
:100A100030BD000000B585B0002001900A48816912
:100A200041F0400181618069694600F04000049016
:100A30004FF480700090012002900320039003483F
:100A400000F09EFC05B000BD00100240000801400F
:100A500030B585B0002000900190029003900E48C0
:100A6000816941F04001816180690C4D00F04000D6
:100A70004FF48074049000222146284600F075FD52
:100A800001210220CDE90210CDE900416946284646
:100A900000F076FC05B030BD0010024000080140B7
:100AA0000C4800B5816985B041F0400181618069E1
:100AB000694600F0400004904FF4807000900120DF
:100AC0000190029003200390034800F059FC05B008
:100AD00000BD000000100240000801407047000007
:100AE00070B50024FFF796FF4FF48075124E04E0B6
:100AF000641CE4B20120FFF74FFF2946304600F0A6
:100B00002FFD10B1642CF3D30FE0642C0DD2002420
:100B100004E0641CE4B20120FFF73EFF29463046A2
:100B200000F01EFD18B1F02C04D3012070BDF02C94
:100B3000EFD3FAE7002070BD0008014070B5002532
:100B40005FF0010400F070F8012806D0A5436000B2
:100B500010F0FF04F6D1284670BD2543F7E70000EA
:100B60002DE9F041012405462602144FFFF798FFB6
:100B700025424FF00002314638460BD100F0F5FC1B
:100B80004620FFF709FF01223146384600F0EDFC10
:100B900002200AE000F0E9FC0920FFF7FDFE012237
:100BA0003146384600F0E1FC3720FFF7F5FE6000E3
:100BB00010F0FF04DAD1BDE8F08100000008014028
:100BC00010B500F051F8FFF78BFFCC20FFF7C8FFFE
:100BD0004420FFF7C5FF00F047F8FFF781FFCC2066
:100BE000FFF7BEFFBE20FFF7BBFFFFF7A7FF0446DE
:100BF000FFF7A4FF000201B251EA04006FF0030402
:100C000001D5C043401CFFF709FB2246FFF7EAFA73
:100C1000BDE81040FFF726BB10B500F025F8BDE891
:100C20001040FFF75DBF000070B5FFF739FF0D4DB5
:100C30004FF4807400222146284600F096FC0F20D5
:100C4000FFF7AAFEFFF7E6FE2146284600F088FCE3
:100C5000012805D000243220FFF79EFE204670BDFB
:100C60000124F8E70008014070B5FFF719FF0B4DAC
:100C70004FF4807400222146284600F076FC40F2B2
:100C8000EE20FFF789FE01222146284600F06DFC88
:100C9000BDE870400F20FFF77FBE00000008014054
:100CA00070470000F8B50024009490F824202546F1
:100CB000012A12D0012280F824204A681F23072A23
:100CC0000DD20668776B521E02EB820293409F435F
:100CD0000B6893401F43776319E00220F8BD066854
:100CE0000D2A0AD2376BD21F02EB820293409F4338
:100CF0000B6893401F43376309E0F76A0D3A02EB34
:100D0000820293409F430B6893401F43F7620A6837
:100D1000072306680A2A0AD3F7680A3A02EB420256
:100D200093409F438B6893401F43F76008E0376907
:100D300002EB420293409F438B6893401F4337610D
:100D40000A68102A01D0112A20D1124B02689A4257
:100D500017D193681B0219D4936843F4000393607E
:100D60000968102912D10C490C4A0968B1FBF2F14B
:100D700001EB8101490000E0491E00910029FBD1EF
:100D800004E0816A41F020018162012480F824504E
:100D90002046F8BD002401401C00002040420F0006
:100DA00070477047704700002DE9F0414FF0000791
:100DB00004003D467ED0A06A002628B9E66284F889
:100DC0002460204600F07EF82046FFF72FFDA16A40
:100DD000C90600D420B1A06A40F01000A06269E00A
:100DE000A16A21F4885141F00201A1626268E169BF
:100DF000237B0A4347EA43010A43A1684FF4807703
:100E0000B94209D0012907D05FF0000194F814C05D
:100E1000BCF1010F02D00AE03946F7E7F3B1A36A4B
:100E200043F02003A362E36A43F00103E362236813
:100E3000D3F804C02CF4694C4CEA010CC3F804C08C
:100E400021688B68DFF870C003EA0C0313438B60E2
:100E5000A168B9420BD0012909D00CE0DFF85CC0D1
:100E6000A3690CEB43330B4343F40061DFE7218AB2
:100E70000D05A5F580152168CB6A23F470032B437B
:100E8000CB62216889680E4B1940914208D1E66215
:100E9000A16A21F0020141F00101A162BDE8F081E7
:100EA000A06A20F0020040F01000A062E06A40F06A
:100EB0000100E0620120F1E7FDF7E1FF00E0FFFF44
:100EC000FE0E1FFF70B586B0002506460095019501
:100ED000029503950068194988422DD118498869FF
:100EE00040F400708861886900F40070049088699B
:100EF00040F0040088618869694600F004000490AD
:100F00000320009001900F4800F03AFA0F4C0E4871
:100F1000C4E900058020C4E90250800020618000FF
:100F200060612020C4E90605204600F0B1F908B14F
:100F3000FFF7B6FE3462666206B070BD0024014061
:100F4000001002400008014008000240E4020020B6
:100F50002DE9F047894604463B4900683B4F0E1D8A
:100F60009046884201D0B84207D1306810F4702F03
:100F700003D001252846BDE8F08794F82400012815
:100F80000CD0012084F824002046FFF7B3FC0500B4
:100F90004FF0000004D084F82400EBE70220EAE7D9
:100FA000A16A40F60162914341F48071A162216817
:100FB000B94218D1326812F4702F14D0A16A41F4EA
:100FC0008011A1623168490505D5A16A21F400515B
:100FD00041F48051A162A16AC9040AD5E16A21F0F5
:100FE0000601E16206E0A26A22F48012A262496868
:100FF000E9E7E06284F82400216A15488862216AE2
:101000001448C862216A1448086321686FF002001E
:1010100008602068816841F48071816021684346DE
:101020004A464C31206A00F061F920688168C1F3BA
:1010300042410729816803D041F48011816099E71A
:1010400041F4A001FAE7000000240140002801401B
:1010500083080008EB080008D108000810B590F8D4
:1010600021100022022905D00421816380F820206C
:10107000012010BD01680B6823F00E030B600168AE
:101080000B6823F001030B6090F84030C46B012122
:1010900001FA03F3636080F8211080F820201046E5
:1010A00010BD000010B590F821100024022903D0D3
:1010B0000421816301243DE001680A6822F00E02E8
:1010C0000A6001680A6822F001020A601A4A01688F
:1010D000914201D1012121E0174A1432914201D1FC
:1010E00010211BE0144A2832914201D1891515E0E4
:1010F000114A3C32914201D189140FE00E4A50321C
:10110000914202D14FF4803108E00B4A643291429F
:1011100002D14FF4801101E04FF08071064A083A85
:101120005160012180F82110002180F82010416BCE
:1011300001B18847204610BD080002402DE9F05F4C
:10114000C16B0C6801680B68D0F840C0042202FA39
:101150000CF2494DDFF824A1494E4A4FDFF828B17F
:10116000DFF828E122422CD05A072AD50A689206D5
:1011700003D40A6822F004020A600168A94201D17E
:10118000042219E0514501D1402215E0B14202D1BB
:101190004FF4806210E0B94202D14FF480420BE07C
:1011A000594502D14FF4802206E0714502D14FF437
:1011B000800201E04FF080622F4908394A60C16A1D
:1011C0003BE04FF0020808FA0CF818EA040F4FF061
:1011D00000094FF0010235D05FEA837832D50B6801
:1011E0009B0605D40B6823F00A030B6080F82120CE
:1011F0000168A94201D1022219E0514501D1202202
:1012000015E0B14202D14FF4007210E0B94202D1B0
:101210004FF400520BE0594502D14FF4003206E082
:10122000714502D14FF4001201E04FF000721249F3
:1012300008394A6080F82090816A00291AD0BDE8F8
:10124000F05F0847082505FA0CF5254212D01B0768
:1012500010D50B6823F00E030B6090F84010C36BA1
:1012600002FA01F15960826380F8212080F8209011
:10127000016BE2E7BDE8F09F080002401C0002405D
:101280003000024044000240580002406C0002401E
:1012900030B528B308C8134914221944B1FBF2F140
:1012A0008900C16310498163022141771A6843F6BE
:1012B000F0718A43D0E900142143D0E902452C4360
:1012C0002143046921434469214384692143114333
:1012D000196000214163012242770177084630BD41
:1012E000012030BDF8FFFDBF0000024070B504468C
:1012F00090F82000002501280CD0012084F820005F
:1013000094F821600020012E06D084F820000225E8
:10131000284670BD022070BD022684F82160A063BB
:101320002068066826F0010606602046FFF75CFB91
:10133000E06A00282068016802D041F00E0106E052
:1013400021F0040101602068016841F00A01016098
:101350002068016841F001010160D9E770B50446D9
:1013600000F008F90546601C02D0044800780444E7
:1013700000F000F9401BA042FAD370BD100000201D
:101380002DE9F84FDFF8B8910024A9F1040B2346AA
:101390000F2709F1040AABF1040EC9E00125A540AD
:1013A0002A40AA427DD1674ED1F804C0ACEB0608B2
:1013B000B44532D014DCBCF1030F3AD009DCBCF1E7
:1013C000000F2AD0BCF1010F1CD0BCF1020F31D1AB
:1013D0001DE0BCF1110F17D0BCF1120F2AD119E09A
:1013E000B8F5881F19D006DCB8F5803F15D0B8F5E0
:1013F000801F1FD111E0B8F5001F0ED0B8F5041FF3
:1014000018D10AE0CB6815E0CB681B1D12E0CB6851
:1014100008330FE0CB680C330CE08B682BB1012B49
:101420004FF0080303D0456104E0042302E00561A6
:1014300000E00023FF2A01D8064601E000F104067F
:101440004FEA840501D9A5F12005D6F8008007FAF6
:1014500005FC28EA0C0803FA05F548EA0508C6F871
:1014600000804D68ED0062D5374DAE6946F001064B
:10147000AE61AD6924F0030605F001050095334D1A
:1014800006EB050CDCF80850A607360F07FA06F83D
:1014900025EA0805DFF8B880404503D14FF0000881
:1014A00017E044E0DFF8AC80404502D14FF001087E
:1014B0000FE0DFF8A480404502D14FF0020808E0B9
:1014C000DFF89880404502D14FF0030801E04FF06B
:1014D000040808FA06F848EA0508CCF808804D68C0
:1014E000D9F80060ED024D4601D5164300E0964361
:1014F0002E604D68DAF80060AD02554601D51643FE
:1015000000E096432E604D68DBF80060AD035D4659
:1015100001D5164300E096432E604D68DEF800606A
:10152000ED03754601D5164300E096432E60641C1A
:101530000D682A46E5407FF431AFBDE8F88F000022
:10154000080401400000111000100240000001409A
:1015500000080140000C014000100140001401404F
:101560008068084000D0012070470AB101617047CF
:101570000904FBE701488068704700001000002064
:101580000248816802781144816070471000002091
:10159000074810B5016841F010010160032000F018
:1015A00075F80F2000F006F800F024F8002010BDB8
:1015B0000020024070B50D4D04464FF47A71287832
:1015C000B1FBF0F00A490968B1FBF0F000F052FB02
:1015D00048B9102C07D200222146501E00F036F8E0
:1015E00000206C6070BD012070BD00001000002064
:1015F0001C0000200C4808B5816941F0010181619F
:10160000816901F001010091C16941F08051C1611E
:10161000C06900F0805000900448416821F0E0610A
:1016200041F00071416008BD00100240000001401F
:10163000002809DB00F01F020121914040098000D1
:1016400000F1E020C0F8001170470000F0B40E4B2C
:101650001B680C46C3F30223C3F10705042D00D910
:101660000425191D072901D2002300E0DB1E0126F5
:1016700006FA05F1491E214099409E40761E16400B
:101680003143F0BC00F094BF0CED00E0064900F0DF
:10169000070208684FF6FF03184040EA0220034A99
:1016A00010430860704700000CED00E00000FA05F0
:1016B0002DE9F84305460078354CC00754D0E06961
:1016C0000026C00008D4E06940F08050E061E06985
:1016D000012600F0805000902E480168C90512D400
:1016E0000168804641F480710160FFF743FF0746BF
:1016F00005E000BFFFF73EFFC01B642823D8D8F8E1
:101700000000C005F6D5206A10F4407021D0A988E9
:1017100001F4407181421CD0206A1F49012220F44B
:1017200040700A6000220A602062C00711D0FFF7F3
:1017300021FF074641F2883808E000BFFFF71AFF93
:10174000C11B414502D90320BDE8F883206A800708
:10175000F4D5206A696820F44070084320621EB105
:10176000E06920F08050E0612878800705D5606846
:10177000A96820F44040084360602878C00605D579
:101780006068E96820F48000084360600020DBE7BF
:101790000010024000700040400442422DE9F04732
:1017A0000F46050061D0434E306800F00700B84294
:1017B00009D2306820F0070038433060306800F00C
:1017C0000700B84251D128683B4C810712D5400729
:1017D00003D5606840F4E06060602878000703D5B6
:1017E000606840F4605060606068A96820F0F000B4
:1017F000084360602878C00728D06868012810D0A6
:101800002168022810D0890700292EDA616821F0AA
:10181000030101436160FFF7ADFE804641F2883964
:101820000DE021688903EFE78901EDE7FFF7A2FEEC
:10183000A0EB0801494502D90320BDE8F0876068A4
:10184000696800F00C00B0EB810FEFD1306800F058
:101850000700B8420BD9306820F0070038433060E9
:10186000306800F00700B84201D00120E5E7287891
:10187000400705D56068E96820F4E06008436060CF
:101880002878000706D56068296920F4605040EA8E
:10189000C100606000F038F86168084AC1F30311C4
:1018A000515CC8400649086006480068FFF782FEA0
:1018B0000020C2E70020024000100240063000086D
:1018C0001C000020140000200448054900684968F5
:1018D000044AC1F30221515CC84070471C0000203B
:1018E00000100240163000080448054900684968A5
:1018F000044AC1F3C221515CC84070471C0000205B
:1019000000100240163000080E4A51680E4801F0DF
:101910000C03042B11D0082B0FD10C48C1F38343C7
:10192000C903C05C0AD55168084AC1F34041921E00
:10193000515C054A5043B0FBF1F0704704494843FD
:10194000704700000010024000127A00F62F0008D5
:1019500000093D002DE9F84F040070D02078C04DFB
:10196000C00749D06868C0F38100012807D06868C3
:10197000C0F38100022809D16868C00306D5286831
:10198000800339D560680028E7D035E06068B0F59D
:10199000803F0BD010B1B0F5A02F11D0286820F4F3
:1019A00080302860286820F4802002E0286840F415
:1019B00080302860606890B1FFF7DCFD06460AE0E1
:1019C000286840F480202860F0E700BFFFF7D2FDD0
:1019D000801B642873D828688003F7D50CE0FFF7D4
:1019E000C9FD064605E000BFFFF7C4FD801B642863
:1019F000F0D828688003F7D420789A4E80074FF0FB
:101A000001094FF0000839D5686810F00C0F07D0B5
:101A10006868C0F38100022809D16868C00306D451
:101A20002868800714D52069012808D110E02069B2
:101A3000B0B1C6F80090FFF79DFD074605E00AE14A
:101A4000FFF798FDC01B0228C4D828688007F7D587
:101A50002868616920F0F80040EAC10028600DE0C4
:101A6000C6F80080FFF786FD074604E0FFF782FD19
:101A7000C01B022823D828688007F7D420780007E5
:101A80002CD57948A169D9B1C0F80090FFF772FD53
:101A9000074604E0FFF76EFDC01B02280FD8686AF6
:101AA0008007F7D571484FF4FA510068B0FBF1F0A8
:101AB000009000BF0098411E0091FAD20EE080E035
:101AC000C0F80080FFF756FD074604E0FFF752FD1F
:101AD000C01B022875D8686A8007F7D420784007B1
:101AE00060D5E8690027C00008D4E86940F080505C
:101AF000E861E869012700F0805000905C480168C7
:101B0000C90513D40168834641F480710160FFF771
:101B100031FD824606E000BFFFF72CFDA0EB0A0076
:101B200064284ED8DBF80000C005F5D5E068012830
:101B30000AD008B1052813D0286A20F001002862D5
:101B4000286A20F0040002E0286A40F001002862C0
:101B5000E06841F2883B98B1FFF70CFD82460BE04C
:101B6000286A40F004002862EEE700BFFFF702FD9C
:101B7000A0EB0A0159455AD8286A8007F6D50CE02F
:101B8000FFF7F8FC824605E0FFF7F4FCA0EB0A0142
:101B900059454CD8286A8007F6D41FB1E86920F06F
:101BA0008050E861E06988B36968C1F38101022966
:101BB00044D00228C6F8608004D0FFF7DBFC04465E
:101BC00038E034E0FFF7D6FC074604E0FFF7D2FC2C
:101BD000C01B02282BD828688001F7D4206AB0F5F2
:101BE000803F05D16868A16820F400300843686030
:101BF000D4E908010843696821F474110843686056
:101C0000C6F86090FFF7B6FC044606E025E000BF8A
:101C1000FFF7B0FC001B022809D828688001F7D51F
:101C20001BE000BFFFF7A6FC001B022802D903201F
:101C3000BDE8F88F28688001F4D40EE00128F7D0C1
:101C40006868226A00F48031914204D1616A00F42C
:101C50007010884201D00120EAE70020E8E7000088
:101C60000010024000004242800442421C0000205A
:101C70000070004010B5401EB0F1807F01D30120FC
:101C800010BD4FF0E02460610F21601700F090FC60
:101C90000020A06107202061002010BD7047704720
:101CA00010F8411F4078084370470000F8B50168FC
:101CB00004460868CA684B6910F00F0F4FF0000522
:101CC00059D003F0010602F49077374365D0C1077D
:101CD00005D0D10503D5616C41F001016164410774
:101CE00005D5D90703D0616C41F002016164810719
:101CF00005D5D90703D0616C41F004016164010787
:101D000007D502F02001314303D0616C41F0080196
:101D10006164616C00293AD0800604D5900602D532
:101D2000204600F017FB20684069616CC0F380100A
:101D3000090700D460B3204600F0E5FA2068406946
:101D4000400621D52068143050E8001F21F04001E2
:101D500040E80012002AF5D1E06BA8B16D4941635B
:101D6000E06BFFF79FF9002811D0E06B416B01B0E9
:101D7000BDE8F040084783060FD593060DD52046F1
:101D8000BDE8F84000F0E6BA2046FFF788FFF8BD4E
:101D90002046FFF784FF6564F8BD266B2023012EE3
:101DA0007CD1C6067AD5D60678D5086848680090F2
:101DB00048694FF00206400640D5E16B086840686C
:101DC0000004000CE8D0A28D8242E5D9E085886944
:101DD00020282DD020680C3050E8001F21F480719D
:101DE00040E80012002AF5D12068143050E8001FA6
:101DF00021F0010140E80012002AF5D120681430DA
:101E000050E8001F21F0400140E80012002AF5D1FF
:101E100084F84230256320680C3050E8001F21F020
:101E2000100140E80012002AF5D1E06BFFF716F927
:101E30006663A08DE18D401A81B22AE0A08DE18D0C
:101E4000401A81B2E08D0028A6D00029A4D02268D3
:101E50000C3252E8000F20F4907042E80007002F87
:101E6000F5D12068143050E8002F22F0010240E83C
:101E70000027002FF5D184F84230256320680C300C
:101E800050E8002F22F0100240E80023002BF5D18B
:101E900066632046FFF702FFF8BDFFE705062BD576
:101EA000150629D594F841002128F5D1A068B0F590
:101EB000805F01D12069B0B1206A411C2162216894
:101EC00000784860E08C401E0004000CE084E3D100
:101ED0002068C16821F08001C1602068C16841F0BC
:101EE0004001C160D8E7206A0088C0F3080048605C
:101EF000206A801C2062E5E74006CDD55006CBD590
:101F0000CA68204622F04002CA6084F8413000F0DE
:101F10001CF9C1E7F722000870B5040004D094F85A
:101F20004100002510B106E0012070BD84F840504A
:101F3000204600F023F8242084F841002068C1687E
:101F400021F40051C160204600F066FA2068016962
:101F500021F4904101612068416921F02A01416129
:101F60002068C16841F40051C1606564202084F894
:101F7000410084F842006563002070BD30B585B033
:101F80000024009401940294039400681849884244
:101F90002CD11848816941F480418161816901F443
:101FA00080410491816941F0040181618069124D91
:101FB00000F0040004904FF40070009002200190A3
:101FC0000320039069462846FFF7DAF92815CDE982
:101FD0000004694628460294FFF7D2F90022114610
:101FE0002520FFF733FB2520FFF722FB05B030BD8E
:101FF00000380140001002400008014090F84230D3
:10200000202B01D00220704721B11AB100230363B5
:1020100000F05EBA012070472DE9F0411D4C00250B
:102020004FF4807620784FF6FF77FF280BD325708A
:1020300031461948FEF78DF83B462A4617A11B4842
:1020400000F036F81EE0144962780A54401CC2B20F
:102050008818227010F8011C0A2913D110F8020CFC
:102060000D280FD13B460C49104800F021F800E044
:1020700025700E48FFF714FE2128F9D03146064896
:10208000FEF767F8BDE8F04102490122491C074804
:10209000FFF7B4BF0000002024000020E695B0E662
:1020A0008DAEE6BAA2E587BA000000002803002042
:1020B0002DE9F843044690F841001F4616460D46A8
:1020C000202802D00220BDE8F8837DB176B100203F
:1020D0006064212084F84100FFF74CFAA684804612
:1020E000E684A068B0F5805F02D003E00120EAE753
:1020F000206910B12E4600250EE000260CE080215C
:10210000204600F000FAA0B9AEB116F8010B216824
:102110004860E08C401EE084E08C43464FF00002B3
:1021200000970028EBD14FF04001204600F0EBF97A
:1021300030B10320C7E735F8020BC0F30800E6E72B
:10214000202084F841000020BDE77047FEE7000032
:10215000FEB50024164800940194144902940160CD
:1021600089158160012505730475022606614FF407
:1021700060214460C161FEF717FE08B1FEF790FDD3
:10218000CDE9004569460A480294FEF78BFD08B187
:10219000FEF786FDCDE9005669460548FEF782FD4B
:1021A000002801D0FEF77CFDFEBD000000240140A8
:1021B000B4020020094808B5416941F001014161BC
:1021C0004069002200F00100009011460B20FFF74B
:1021D0003DFABDE808400B20FFF72ABA0010024084
:1021E00030B585B000200090019002900390164811
:1021F000816941F020018161816901F02001049130
:10220000816941F004018161816901F00401049157
:10221000816941F00801816180690C4D00F008007E
:102220004FF480740490002221462846FFF79DF960
:1022300001210220CDE90210CDE90041694628467E
:10224000FFF79EF805B030BD0010024000080140C5
:102250000C4810B50A4901604FF416514160002145
:1022600081600C22C160C0E904128161C161FFF785
:1022700053FE002803D0BDE81040FEF711BD10BD8D
:102280000038014028030020FEE7FEE77047704752
:10229000FFF776B930B593B028216846FDF759FFAE
:1022A00014210AA8FDF755FF002401200F94109473
:1022B0001194010412948DE8130004904FF4E0107F
:1022C000CDE90810022507956846FFF743FB0F206C
:1022D000CDE90A056802CDE90C4002210AA80E9456
:1022E000FFF75CFAA80311900F950FA8FFF7E0F92C
:1022F00013B030BD704710B5406A0021C185C1845C
:10230000FFF7CDFC10BD01680C3151E8002F22F41D
:10231000907241E80023002BF5D10168143151E897
:10232000002F22F0010241E80023002BF5D1016BC0
:10233000012909D101680C3151E8002F22F0100267
:1023400041E80023002BF5D1202180F84210002124
:102350000163704708B590F84210222901D002208D
:1023600008BD82684FF480539A4201D1016921B1BE
:10237000816A9A421BD04AB10AE00268816A5268B7
:10238000C2F308020A80816A891C08E0026972B1FE
:102390000268526802F07F020A70816A491C8162F9
:1023A000C18D491E0904090CC18503D01BE00268D8
:1023B0005268F1E70168CA6822F02002CA60016829
:1023C000CA6822F48072CA6001684A6922F0010278
:1023D0004A61202180F8421000214163026B012AEA
:1023E00003D0FFF719FE002008BD016301680C311E
:1023F00051E8002F22F0100241E80023002BF5D114
:1024000001680A68D20602D50A6849680091818D80
:10241000FFF744FCE7E7000070B504460068016977
:10242000E26821F44051114301612169A068084329
:10243000616908432168CA6841F20C639A43024308
:10244000CA6020684169A26921F440711143416169
:102450001E492068884202D1FFF746FA01E0FFF7E3
:1024600033FA00EBC00101EB0012606864218000C8
:10247000B2FBF0F3B3FBF1F36FF018067343B2FB5A
:10248000F0F5B2FBF0F605EB8305322303EB0515FF
:10249000B5FBF1F5B6FBF1F605F0F00505EB061519
:1024A000B2FBF0F6B2FBF0F0B0FBF1F06FF0180207
:1024B000504306EB800003EB0010B0FBF1F0216805
:1024C00000F00F002844886070BD00000038014013
:1024D00081628285C28500214164222180F84210F8
:1024E000016921B10168CA6842F48072CA6001685A
:1024F0004A6942F001024A610068C16841F0200166
:10250000C160002070472DE9F041984617460E46FD
:102510000446069D27E0681C25D02DB1FFF72AF858
:10252000A0EB0800A8421ED920680C3050E8001F1C
:1025300021F4D07140E80012002AF5D1206814304F
:1025400050E8001F21F0010140E80012002AF5D1F7
:10255000202084F8410084F84200002084F84000E4
:102560000320BDE8F0812068006836EA000004D04E
:102570000020B842CFD00020F3E70120F9E70000A7
:102580000148FFF793BB000028030020FEE700008E
:102590000FB4054B10B503A9044A029800F0EAF8FD
:1025A00010BC5DF814FB0000A52E000820000020E0
:1025B0000907090E002804DB00F1E02080F8001470
:1025C000704700F00F0000F1E02080F8141D704704
:1025D00002E008C8121F08C1002AFAD170477047EC
:1025E000002001E001C1121F002AFBD1704700004A
:1025F0002DE9FF5F82B00021DDE90430020DDDF836
:1026000040B0034318D044F61050A2F2FF324243C8
:102610001514119801281FD0A5EB0B00401C5FEA90
:10262000000A4FF000064E4FDFF83891B046504692
:1026300015D5CAF1000413E0119801244AA301281A
:1026400001D16FEA0B010298119AC0E90031C0E98B
:10265000024206B0BDE8F09FCBF10000DFE7044680
:102660000021404A491842EB0450CDE9001012E025
:10267000E00707D032463B4640464946FDF790FF0B
:102680008046894632463B4610461946FDF788FF8C
:1026900006460F466410002CEAD1DDE90401DDE9AD
:1026A0000023BAF1000F06DAFDF77AFF42464B46E7
:1026B000FDF776FF05E0FDF7E5FF42464B46FDF7E7
:1026C000E1FF04460E460022284BFEF763F803D8CC
:1026D0004FF0FF30014607E00022254B20463146EF
:1026E000FDF7B7FEFEF73DF8102409E0002C0ADBE9
:1026F0000A220023FDF7E8FD039B30321A55641EC1
:1027000050EA0102F2D1641C039AC4F1110314448B
:10271000119A012A03D0012208430DD10AE008438F
:1027200004D000204FF0110B119072E7A3EB0B05C2
:102730006D1E0DE05B4504DD4FF0000205F1010563
:1027400004E003DA4FF00002A5F10105002AECD005
:1027500002981199C0E90231C0E9004579E700000B
:10276000000014400000F03F300000000000F04383
:102770000000E03F2DE9FF4F95B09B468946064695
:1027800000250FE2252877D100242746F84A0121A9
:10279000059400E0044316F8013F203B01FA03F0E2
:1027A0001042F7D130782A2811D06FF02F033078FB
:1027B000A0F13002092A16D8059A44F0020402EB6F
:1027C000820203EB42021044761C0590EFE759F8B1
:1027D000042B0592002A03DA504244F40054059079
:1027E00044F00204761C30782E2816D116F8010F1A
:1027F00044F004042A280DD06FF02F023078A0F1A5
:102800003003092B09D807EB870302EB4303C718F2
:10281000761CF3E759F8047B761C30786C280FD0CF
:1028200006DC4C2817D068280DD06A2814D104E0A3
:10283000742810D07A280FD10DE044F400140AE077
:1028400044F4801401E044F440147278824202D1CE
:1028500004F58014761C761C307866280BD013DCC7
:10286000582877D009DC002875D04528F6D04628AE
:10287000F4D047281AD19DE118E0632835D06428A8
:1028800079D0652812D195E1702873D008DC6728CB
:10289000F1D069286FD06E280DD06F2806D1B5E031
:1028A00073282CD0752875D0782874D05A4617997B
:1028B00090476D1C75E1C4F30250022809D003282B
:1028C0000DD0D9F8001004280DD00D6009F10409CD
:1028D00067E1D9F80010EA17C1E90052F6E7D9F824
:1028E00000100D80F2E70D70F0E719F8041B8DF869
:1028F000001000208DF80100EA46012003E059F89D
:1029000004AB4FF0FF3061074FF0000102D40DE03F
:1029100008F101018846B9420FDA8045F8DB1AF860
:1029200008100029F4D108E008F10101884681422D
:10293000FADB1AF808100029F6D105985B46A0EBDF
:10294000080721463846179A00F094FA284400EB0D
:10295000080507E04DE029E10DE01AF8010B5A46A1
:1029600017999047B8F10108F7D25B4621463846DF
:10297000179A13E142E00A220092C4F302524FF088
:10298000000A022A08D059F804CB032A4FEAEC7156
:102990000AD00DE029E02AE009F1070121F0070241
:1029A000F2E802C1914609E00FFA8CFC4FEAEC71A3
:1029B000042A03D14FFA8CFC4FEAEC71002907DAA4
:1029C0000A460021DCF1000C61EB02012D2202E03D
:1029D000220504D52B228DF80420012203E0E20712
:1029E00001D02022F7E7904659E00A2102E01022A8
:1029F0000DE010214FF0000A00910BE010224FF083
:102A0000000A44F004040827009203E008224FF073
:102A1000000A0092C4F30252022A05D059F804CBEE
:102A20000021032A08D009E009F1070121F007027B
:102A3000F2E802C1914605E01FFA8CFC042A01D19C
:102A40000CF0FF0C4FF00008220728D5702806D0A4
:102A5000009B83F0100353EA0A0305D00EE04022E6
:102A60008DF80420012208E05CEA010206D0302241
:102A70008DF804208DF8050002229046009B83F01B
:102A8000080353EA0A030AD15CEA010201D1620792
:102A900005D530228DF804204FF001087F1E5828FC
:102AA00004D034A003900EA802900DE036A0F9E700
:102AB00053466046009AFDF707FC84460398825C03
:102AC0000298401E029002705CEA0100F0D1029868
:102AD00006A9081A00F1200A600702D524F4803400
:102AE00000E00127574502DDA7EB0A0000E00020C7
:102AF00000EB0A01009005984144401A0590E0035C
:102B000006D45B462146179A059800F0B3F90544B0
:102B1000002706E001A85A46C05D179990476D1C32
:102B20007F1C4745F6DBE0030CD55B462146179A30
:102B3000059800F09FF9054404E030205A461799A3
:102B400090476D1C0099481E00900029F5DC08E0B4
:102B5000029802995A460078491C029117999047A9
:102B60006D1CBAF10001AAF1010AF1DC65E1000077
:102B70000928010030313233343536373839616253
:102B80006364656600000000303132333435363717
:102B900038394142434445460000000000F058F9EE
:102BA0000544761C307800287FF4ECAD19B0284637
:102BB000BDE8F08F620700D4062709F1070222F072
:102BC000070CFCE80223E14603F000485FEA080C2A
:102BD00002D00FF2702C0DE05FEA045C02D50FF218
:102BE000682C07E05FEAC47C02D00FF2602C01E0A1
:102BF000AFF2700C4FF0FF3823F00043CDF850C017
:102C000065280CD006DC452809D046281DD0472869
:102C10003DD13DE0662818D067287ED138E00021FC
:102C2000112F01DB112000E0781CCDE9000106A97D
:102C30000EA8FFF7DDFCDDE90F010E9A03910021DC
:102C4000009207F1010A04914DE04FF00040009717
:102C5000CDE9011006A90EA8FFF7CAFCDDE90F02B5
:102C600003920E9B11990022DDF80CA000930492B0
:102C700011B9791C00EB010AB7EB0A0004D4C0F1CA
:102C8000FF3007F1010A0490AAEB0700019044E02D
:102C9000012F00DA01270021112F01DD112000E0B2
:102CA0003846CDE9000106A90EA8FFF7A1FCDDE931
:102CB0000F010E9A0391002104910092BA46210758
:102CC0000CD40399514500DA8A46BAF1010F05DDAB
:102CD000009AAAF10101515C302908D0B84202DA09
:102CE00010F1040F06DA0121CDE9011015E0AAF177
:102CF0000101E9E7002805DC049901440491AAEBED
:102D0000000102E0411C514500DD8A460499401A49
:102D1000401C01904FF000400290200704D401981D
:102D2000504501DBCDF8048000208DF84F0002985B
:102D30000DF14F07B0F1004F25D02B200E900298D7
:102D40004FF0020800280CDA404202902D200E902D
:102D500007E00A210298FDF7A1FA3031029007F846
:102D6000011DB8F10001A8F10108F2DC0298002869
:102D7000EFD1791E0E980870307800F0200040F0F6
:102D8000450007F8020D12A8C01B00F107081498AF
:102D9000007800B1012000EB0A01019801EBE0711D
:102DA00005984144401A401E0590E00306D45B4656
:102DB0002146179A059800F05DF8054414980078AC
:102DC00018B15A46179990476D1CE00324D55B460D
:102DD0002146179A059800F04DF805441CE0049828
:102DE000002807DBDDE90301884203DD0098405C31
:102DF000179901E0179930205A469047049805F139
:102E00000105401C04900198401E019004D12E2021
:102E10005A46179990476D1CBAF10001AAF1010AB0
:102E2000DDDC05E017F8010B5A46179990476D1C39
:102E3000B8F10001A8F10108F4DC5B462146179ABD
:102E40000598ABE62D0000002B00000020000000DC
:102E50002DE9F041044600251E461746880404D497
:102E600005E039462020B0476D1C641EF9D5284680
:102E7000BDE8F0812DE9F041044600251E4690464C
:102E8000C80301D5302700E02027880404D505E0D9
:102E900041463846B0476D1C641EF9D52846BDE84A
:102EA000F081000013B54FF6FF7301226946024816
:102EB000FFF7FEF800981CBD28030020FEF768FB12
:102EC000FFF7E8F9FFF78CF9FFF774F9FFF7C0F99E
:102ED000FFF73EF9FDF7BCFDFDF79EFE01223649E6
:102EE0003648FFF78BF8642235493648FEF730F84C
:102EF000314CDFF8CC904FF00008641EC820FEF77C
:102F00002DFA84F802804046C4F8088001464B46FA
:102F1000C4F80C80A27853F82250521CD2B2294433
:102F200053F82250521CD2B22844A270642AF1D322
:102F30003222B1FBF2F1B0FBF2F0C4E90210224DF3
:102F4000FDF73EFE6060A842FADCA068FDF761F97B
:102F50001E4D2946FDF708F96FF00B063146FDF7C7
:102F600035F91B4F3946FDF7FFF8FDF768F90246C2
:102F70000B4618A0FFF70CFBE068FDF74AF929465D
:102F8000FDF7F2F83146FDF721F93946FDF7ECF887
:102F9000FDF755F902460B4610A0FFF7F9FA114963
:102FA0006068FDF7E1F8FDF74AF902460B460EA00E
:102FB000FFF7EEFAA2E7000001000020280300203E
:102FC00024010020B4020020000048423333534063
:102FD00000007A442530342E306600002530342E2F
:102FE000306620000000C8422530342E30660D0ABD
:102FF00000000000010202030405060708090A0B8D
:103000000C0D0E0F10100000000000000000010267
:103010000304060708090000000001020304000081
:10302000403000080000002024000000D0250008E7
:1030300064300008240000204C070000E025000850
:103040000000000000000000000000000000000080
:103050000100000010000000000000000024F40047
:04306000000000006C
:04000005080000ED02
:00000001FF
