:020000040800F2
:10000000400E002001010008C5320008792C0008CC
:10001000C13200086B0A0008E1400008000000003F
:100020000000000000000000000000007D36000815
:10003000BD0A000800000000DD3500087F3600081A
:100040001B0100081B0100081B0100081B01000820
:100050001B0100081B0100081B0100081B01000810
:100060001B0100081B0100081B0100081B01000800
:100070001B0100081B0100081B0100081B010008F0
:10008000710A0008810A00081B0100081B01000812
:100090001B0100081B0100081B0100081B010008D0
:1000A0001B0100081B0100081B0100081B010008C0
:1000B0001B0100081B0100081B0100081B010008B0
:1000C0001B0100081B0100081B0100081B010008A0
:1000D0001B0100081B010008714000081B010008FB
:1000E0001B0100081B0100081B010008DFF80CD0F1
:1000F00000F070FC00480047294A0008400E00202C
:100100000648804706480047FEE7FEE7FEE7FEE7B1
:10011000FEE7FEE7FEE7FEE7FEE7FEE70F37000833
:10012000ED000008202A04DB203A21FA02F0002129
:10013000704721FA02F3D040C2F1200291400843F7
:1001400019467047D2B201E000F8012B491EFBD2DC
:1001500070470022F6E710B513460A4604461946D2
:10016000FFF7F0FF204610BD2DE9F05F93460F46E4
:1001700080460446002603F0E5FFD0F80090824652
:1001800014F8015B2DB100F00DFB0068405DC00765
:10019000F6D12B2D02D02D2D1AD0641E0021CAF8C5
:1001A00000105A463946204600F000FB014627B1B0
:1001B0003868A04201D1C7F80080DAF800000228B0
:1001C00009D0CAF80090700505D54842BDE8F09FF7
:1001D00046F48066E2E70846F8E780EA010210B5D7
:1001E00002F00043400022D04A001FD0010E01EB74
:1001F0001261C0F35600C2F3560240F4000042F40C
:100200000002A0FB022000047F39140400D0401C2F
:1002100050EA124001D44000491EC2B20C0604EB61
:10022000D010401C4008802A02D003E0002010BDFE
:1002300020F00100002900DA0020184310BD30B47E
:1002400080EA010202F0004530F0004221F0004057
:1002500013D090B1C30DD40DC2F31601C0F3160034
:10026000E41A41F4000140F400027D34914201D3CC
:10027000641C00E04900002C02DA30BC002070470A
:100280004FF400000023914201D3891A0343400830
:100290004FEA4101F7D151B1914202D14FF00041F3
:1002A00005E002D24FF0010101E06FF0010103EB24
:1002B000C450284430BC00F0C8BA2DE9FE4F804637
:1002C00081EA0300C00F0C46009021F0004123F0AA
:1002D0000045B8EB0200A94105D2404621469046B0
:1002E0001C460B46024623F00040104347D0270D22
:1002F000C7F30A00C3F30A510290401A0190402844
:100300006BDAC3F3130040F4801B0098924620B1CF
:100310000023D2EB030A63EB0B0B01985946C0F1A3
:100320004002504600F01DFA06460D46504659461A
:10033000019A00F025FA10EB08006141002487EAD9
:10034000115284EAE7731A4340D0009A62B3019ACB
:10035000012A4FEA075215DC001B61EB02014FF046
:10036000004202EA0752CDE90042001C41F580112B
:1003700032462B4600F0AFFA03B0BDE8F08F40469E
:100380002146F9E7001B61EB0201001C41F58013D7
:1003900000185B412018A2F5001747EB030140EA63
:1003A000D570B6196D4111E06D084FEA360645EA81
:1003B000C0754FEA0752001B61EB0201001C41F5BA
:1003C000801149084FEA30000019514132462B464E
:1003D00003B0BDE8F04F00F06FBA00980122400072
:1003E0000023D0EB020263EBE073009821464FEA52
:1003F000E074B8EB000061EB0401E9E783F000432F
:100400005BE781F0004158E72DE9FE4F81EA0304E4
:1004100004F0004421F0004100944FF0000B23F061
:10042000004350EA01045ED052EA03045BD0C3F3F8
:100430000A54C1F30A552C44A4F2F3340194A0FBEE
:100440000254C1F3130141F48011C3F3130343F4C5
:10045000801301FB024400FB034E840A970A44EA1E
:10046000815447EA8357A4FB076802958D0A05FB70
:1004700007854FEA932C04FB0C542705029D4FEA95
:10048000065847EA1637B5EB08056EEB070C870EE2
:10049000920E47EA811742EA8312A7FB0201B6EBEC
:1004A0000B0164EB00042B0D43EA0C335E1844EBA4
:1004B0001C50DA465146E7FB0201C5F313044FEA2C
:1004C0000B3343EA14534FEA0432019C43EA060318
:1004D000A4F10C040294009CCDE900B400F0FBF9F7
:1004E00003B0BDE8F08F00200146F9E72DE9F04D9B
:1004F00081EA030404F0004B21F0004514464FF05C
:10050000000A23F0004150EA050220D054EA01021B
:100510001DD0C5F30A570246C5F31303C1F31300F8
:10052000C1F30A5640F4801543F48013A7EB060884
:10053000101BD64608F2FD3873EB050002D308F114
:10054000010801E092185B41B8F1000F03DA0020C6
:100550000146BDE8F08D00204FF480110646844628
:100560000EE0171B73EB050705D3121B63EB0503A6
:1005700006434CEA010C49084FEA300092185B41EF
:1005800050EA0107EDD152EA030012D082EA0400DA
:1005900083EA0501084305D0101BAB4106D20122B6
:1005A000002306E000224FF0004302E06FF001025A
:1005B00053101AEB06004CEB085110EB0A0041EB0C
:1005C0000B01BDE8F04D00F077B9962300221146EB
:1005D00000F044B90EB5C10F80EAE0700844CA07C4
:1005E000002140F233438DE80E000A460B4600F02E
:1005F00072F903B000BD20F00040C10DC0F3160039
:1006000040F400007F2901DA00207047962903DCBE
:10061000C1F19601C840704796398840704700F094
:10062000004230F000400AD0C10D01F56071C0F306
:10063000160042EA0151C2084007114370470020EA
:100640000146704730B5041E71F1000404DB4FF021
:100650000044404264EB0101141E73F1000405DB09
:100660001C464FF00043524263EB04038B4208BF29
:10067000824230BD01F0004330B421F0004150EA25
:10068000010206D00A0DA2F56072C1F31301002A1F
:1006900002DC30BC00207047440F44EAC104C100B2
:1006A000E01830BC00EBC25000F0CFB8002801DBEE
:1006B000C0F10040002901DBC1F1004181427047D7
:1006C000002801DBC0F10040002901DBC1F100413D
:1006D0008842704730B50B46014600202022012495
:1006E00009E021FA02F59D4205D303FA02F5491B00
:1006F00004FA02F52844151EA2F10102F1DC30BD16
:100700002DE9F05F0546002092469B468846064646
:10071000814640241BE02846414647462246FFF7D3
:1007200001FD53465A46C01A914110D3114618464E
:10073000224600F016F82D1A67EB01084F462246B4
:100740000120002100F00DF817EB00094E41201E9A
:10075000A4F10104DFDC484631462A464346BDE8A1
:10076000F09F202A04DB203A00FA02F100207047B3
:100770009140C2F1200320FA03F3194390407047DF
:10078000202A06DBCB17203A41FA02F043EAE07355
:1007900006E041FA02F3D040C2F120029140084342
:1007A0001946704700487047385B00082DE9F05F34
:1007B00082460078002715468B460AF10104B946A7
:1007C000302801D09DB113E014F8010B01277828DF
:1007D00003D0582801D045B10AE00DB1102D07D142
:1007E0000027102514F8010B02E0082500E00A2577
:1007F0000026B0460EE005FB080005FB06F10127C8
:1008000001EB10461FFA80F8B6F5803F00D3B946D9
:1008100014F8010B294600F0EFF80028EBDABBF1E1
:10082000000F05D00FB1641E00E05446CBF8004025
:10083000B9F1000F06D003F085FC02210160C81E4B
:10084000BDE8F09F48EA0640FAE70029A8BF7047D4
:10085000401C490008BF20F00100704710B4B0FAF6
:1008600080FC00FA0CF050EA010404BF10BC704791
:1008700049B1CCF1200421FA04F411FA0CF118BFAB
:10088000012121430843A3EB0C01CB1D4FEA00617A
:100890004FEA102042BF002010BC704700EBC3504D
:1008A00010440029A4BF10BC7047401C490008BF79
:1008B00020F0010010BC704710B5141E73F1000445
:1008C00008DA401C41F1000192185B411A4301D142
:1008D00020F0010010BD2DE9F04D92469B4611B16C
:1008E000B1FA81F202E0B0FA80F220329046FFF7CE
:1008F00038FF04460F4640EA0A0041EA0B0153461E
:100900005A46084313D0114653EA010019D0C8F1E2
:1009100040025046FFF706FC05460E465046594633
:100920004246FFF71EFF084305D0012004E02046A1
:100930003946BDE8F08D0020054346EAE0762C43B9
:1009400037430A986305E40AA0EB08000022FD0A79
:1009500044EA47540A3002D500200146E9E7010580
:1009600010196941DDE9084500196941BDE8F04DFC
:10097000A2E7C1F30A52C1F3130140F2FF3341F47D
:1009800080119A4202DA00200146704740F2334358
:100990009A42A2F2334202DC5242FFF7C3BBFFF796
:1009A000E0BE000030B5041E71F1000404DB4FF01E
:1009B0000044404264EB0101141E73F1000405DBA6
:1009C0001C464FF00043524263EB0403994208BFB8
:1009D000904230BD064C074D06E0E06840F0010350
:1009E00094E8070098471034AC42F6D3FFF782FB37
:1009F0003C5B00085C5B00083A2800D2303820F0ED
:100A00002002412A01D3A2F13700884201D34FF0DE
:100A1000FF30704770B58C1810F8015B15F00703B4
:100A200001D110F8013B2A1106D110F8012B03E087
:100A300010F8016B01F8016B5B1EF9D12B0705D48F
:100A40000023521E0DD401F8013BFAE710F8013BD8
:100A5000CB1A921C03E013F8015B01F8015B521EF4
:100A6000F9D5A142D8D3002070BD00BFFEE7000039
:100A700010B5024800F0A8F810BD0000B809002029
:100A800010B5024800F0A0F810BD0000FC090020DD
:100A900030B590F840500124AC40C56B6C600468E0
:100AA00063604468102C04D10468A2600468E160AB
:100AB00003E00468A1600468E26030BD70477047DD
:100AC0000146002291F82100022808D00420886302
:100AD00000BF002081F8200000BF01207047086897
:100AE000006820F00E000B6818600868006820F0AD
:100AF00001000B68186091F8403001209840CB6BE2
:100B00005860012081F8210000BF002081F82000FA
:100B100000BF1046E2E7000070B50446002594F8D7
:100B20002100022803D00420A063012548E02068AA
:100B3000006820F00E00216808602068006820F03E
:100B40000100216808601F492068884201D1012006
:100B500026E01C4914312068884201D110201FE092
:100B6000184928312068884201D1801518E01549BC
:100B70003C312068884201D1801411E01149503184
:100B80002068884202D14FF4803009E00D49643179
:100B90002068884202D14FF4801001E04FF080704D
:100BA000084908394860012084F8210000BF00206E
:100BB00084F8200000BF606B10B12046616B88474D
:100BC000284670BD0800024070B50446E06B056819
:100BD0002068066894F840100420884028400028C7
:100BE00046D006F00400002842D02068006800F0DB
:100BF000200028B92068006820F0040021680860FF
:100C000057492068884201D1042027E05449143113
:100C10002068884201D1402020E0514928312068D5
:100C2000884201D1001519E04D493C3120688842C5
:100C300002D14FF4804011E0494950312068884288
:100C400002D14FF4802009E0454964312068884290
:100C500002D14FF4800001E04FF080604049083934
:100C60004860E06A00287AD02046E16A884776E04A
:100C700094F84010022088402840A0B306F00200FB
:100C800088B32068006800F0200040B92068006840
:100C900020F00A0021680860012084F82100304912
:100CA0002068884201D1022028E02D4914312068B3
:100CB000884201D1202021E029492831206888423A
:100CC00001D140151AE026493C312068884202D102
:100CD0004FF4005012E0224950312068884203D17D
:100CE0004FF400300AE017E01D4964312068884263
:100CF00002D14FF4001001E04FF00070184908399C
:100D0000486000BF002084F8200000BFA06A30B314
:100D10002046A16A884722E094F8401008208840C5
:100D20002840E0B106F00800C8B12068006820F053
:100D30000E002168086094F8401001208840E16BA3
:100D400048600120A06384F8210000BF002084F8DF
:100D5000200000BF206B10B12046216B884770BD7A
:100D6000080002400146002209B901207047164BD5
:100D70000868C01A1423B0FBF3F08000086412481E
:100D80000838C863022081F821000868026843F629
:100D9000F0708243D1E901031843CB6818430B6913
:100DA00018434B6918438B691843CB6918430243B6
:100DB0000868026000208863012081F8210000207B
:100DC00081F8200000BFD1E7080002402DE9F04182
:100DD00004460D4616461F464FF0000800BF94F823
:100DE0002000012802D10220BDE8F081012084F812
:100DF000200000BF94F8210001282CD1022084F8A3
:100E000021000020A0632068006820F00100216814
:100E100008603B46324629462046FFF739FEE06A25
:100E200030B12068006840F00E00216808600BE0D7
:100E30002068006820F004002168086020680068CD
:100E400040F00A00216808602068006840F0010056
:100E50002168086006E000BF002084F8200000BF81
:100E60004FF002084046BFE770B5044600F0B8F9FD
:100E700006462546681C10B104480078054400BFAA
:100E800000F0AEF9801BA842FAD370BDDC0500204B
:100E90002DE9F8470346002294466EE14FF0010821
:100EA00008FA02F4D1F8008008EA0400A0427DD1DB
:100EB000DFF8DCA2D1F80480A8EB0A09D0453AD0CB
:100EC00014DCB8F1030F50D009DCB8F1000F31D0B9
:100ED000B8F1010F1CD0B8F1020F49D120E0B8F1F0
:100EE000110F18D0B8F1120F42D11EE0B9F5881FCA
:100EF00025D006DCB9F5803F20D0B9F5801F37D169
:100F00001AE0B9F5001F18D0B9F5041F30D117E069
:100F1000D1F80CC02DE0D1F80C8008F1040C28E0C9
:100F2000D1F80C8008F1080C23E0D1F80C8008F10E
:100F30000C0C1EE000BF00BF00BF00BF00BF00BF21
:100F4000D1F80880B8F1000F02D14FF0040C0BE08B
:100F5000D1F80880B8F1010F03D14FF0080C1C61E3
:100F600002E04FF0080C5C6103E04FF0000C00E081
:100F700000BF00BFFF2801D8984601E003F1040834
:100F80004646FF2802D84FEA820803E0A2F108088B
:100F90004FEA88084746D6F800804FF00F0909FA53
:100FA00007F928EA09080CFA07F900E088E048EA9E
:100FB0000908C6F80080D1F8048008F08058B8F11C
:100FC000805F7DD100BFDFF8CC81D8F8188048F071
:100FD0000108DFF8C091C9F81880C846D8F8188011
:100FE00008F00108CDF8008000BF00BF4FEAB93813
:100FF0004FEA920958F829504FEA82784FEA187957
:101000004FF00F0808FA09F825EA0805DFF888818B
:10101000434502D14FF0000816E0DFF880814345D8
:1010200002D14FF001080FE0DFF87481434502D18F
:101030004FF0020808E0DFF86C81434502D14FF021
:10104000030801E04FF004084FEA82794FEA19796A
:1010500008FA09F848EA0505DFF84C814FEA9209D9
:1010600048F82950D1F8048008F48018B8F5801F9A
:101070000AD1DFF83881D8F8008048EA0008DFF8A4
:101080002C91C9F8008009E0DFF82081D8F80080B1
:1010900028EA0008DFF81491C9F80080D1F804802C
:1010A00008F40018B8F5001F10D1DFF8008108F12E
:1010B0000408D8F8008048EA0008DFF8F09000E063
:1010C0005AE009F10409C9F800800DE0DFF8DC807E
:1010D00008F10408D8F8008028EA0008DFF8CC906E
:1010E00009F10409C9F80080D1F8048008F4003837
:1010F000B8F5003F0ED1DFF8B480A8F10408D8F8A5
:10110000008048EA0008DFF8A490A9F10409C9F8B2
:1011100000800DE0DFF89480A8F10408D8F8008082
:1011200028EA0008DFF88490A9F10409C9F80080D2
:10113000D1F8048008F48038B8F5803F0ED1DFF88C
:101140006C80A8F10808D8F8008048EA0008DFF8A9
:101150005C90A9F10809C9F800800DE0DFF84C8027
:10116000A8F10808D8F8008028EA0008DFF83C90C9
:10117000A9F10809C9F80080521CD1F8008028FAAA
:1011800002F8B8F1000F7FF489AEBDE8F8870000DF
:10119000000011100010024000080140000C014046
:1011A0000010014000140140080001400804014003
:1011B000024693680B400BB1012000E0002070470D
:1011C00010B5C26821EA020302EA010443EA0443BB
:1011D000036110BD0AB1016101E00B0403617047B6
:1011E0000148006870470000D405002070B504462F
:1011F0000CB9012070BD94F83D0028B9002084F896
:101200003C00204600F08CF9242084F83D00206842
:10121000006820F00100216808602068006840F440
:101220000040216808602068006820F400402168C0
:10123000086000F069FC05465C496068884206D891
:101240005B48854201D2012007E0002005E05948B3
:10125000854201D2012000E00020012800D1C9E729
:101260005548B5FBF0F62068406820F03F00304359
:10127000216848604D496068884201D8701C07E0C9
:101280004FF4967070434FF47A71B0FBF1F0401C4C
:101290002168096A21F03F01084321680862434937
:1012A0006068884214D8681E61684900B0FBF1F09C
:1012B000401CC0F30B00042801D204203DE0681E4E
:1012C00061684900B0FBF1F0401CC0F30B0034E052
:1012D000A06838B9681E616801EB4101B0FBF1F00C
:1012E000401C0AE0681E616801EBC10202EB0111BB
:1012F000B0FBF1F0401C40F48040C0F30B0008B993
:1013000001201AE0A06848B9681E616801EB41013C
:10131000B0FBF1F0401CC0F30B000CE0681E6168EC
:1013200001EBC10202EB0111B0FBF1F0401CC0F374
:101330000B0040F4804040F400402168C9694CF63D
:10134000FF72914308432168C861D4E9070108434B
:101350002168096821F0C001084321680860D4E9C8
:10136000031008432168896848F2FF32914308431B
:1013700021688860D4E9050108432168C96821F023
:10138000FF0108432168C8602068006840F0010040
:101390002168086000202064202084F83D0000209F
:1013A000206384F83E0000BF24E70000A08601000F
:1013B00080841E0000093D0040420F002DE9FC5FC3
:1013C00004460F4690469946DDE90CAB0E9EFFF7AA
:1013D00007FF054694F83D0020287DD119230122FE
:1013E0004D492046009501F00CFD10B10220BDE8EA
:1013F000FC9F00BF94F83C00012801D10220F6E7D1
:10140000012084F83C0000BF2068006800F0010063
:1014100028B92068006840F0010021680860206851
:10142000006820F4006021680860212084F83D00F5
:10143000402084F83E0000202064C4F824A0A4F8D2
:101440002AB0608D20853548E0624B4642463946D9
:101450002046CDE9006501F031FC08B10120C6E766
:1014600031E02A463146204601F0A7FD50B1206CFC
:10147000042805D12068006840F4007021680860E5
:101480000120B4E7606A007821680861606A401C46
:101490006062208D401E2085608D401E6085206822
:1014A0004069C0F3800070B1208D60B1606A00783F
:1014B00021680861606A401C6062208D401E2085A2
:1014C000608D401E6085208D0028CAD12A46314695
:1014D000204601F063FC00E01CE050B1206C0428C1
:1014E00005D12068006840F4007021680860012080
:1014F0007DE72068006840F40070216808602020C3
:1015000084F83D00002084F83E0000BF84F83C00D1
:1015100000BF6CE702206AE7020010000000FFFF36
:1015200010B586B004460020029003900490059008
:1015300015492068884225D100BF1448806940F0D1
:101540000800124988610846806900F0080001908F
:1015500000BF00BFC020029012200390032005901E
:1015600002A90B48FFF794FC00BF0848C06940F48B
:1015700000100649C8610846C06900F400100190D7
:1015800000BF00BF06B010BD005400400010024074
:10159000000C0140034800680349097808440149E8
:1015A00008607047D4050020DC05002010B508480D
:1015B000006840F0100006490860032000F0A8F819
:1015C0000F2000F007F800F02BF8002010BD0000FD
:1015D0000020024070B504460E4800784FF47A713E
:1015E000B1FBF0F00C490968B1FBF0F5284600F0BA
:1015F000B5FD08B1012070BD102C07D20022214694
:10160000501E00F047F80548046001E00120F2E7B1
:101610000020F0E7DC050020E0050020D8050020D0
:1016200008B500BF1148806940F001000F4988618A
:101630000846806900F00100009000BF00BF00BFB5
:101640000846C06940F08050C8610846C06900F093
:101650008050009000BF00BF00BF0549486820F0DF
:10166000E06040F00070486000BF08BD001002401C
:101670000000014001460846002809DB00F01F0376
:1016800001229A4043099B0003F1E023C3F80021A3
:1016900000BF70472DE9F05F80460D4616460027D3
:1016A00002F034FD074639462A46334601F007006A
:1016B000C0F1070ABAF1040F02D94FF0040A01E0A1
:1016C000C0F1070AD14600F1040ABAF1070F02D2AD
:1016D0004FF0000A01E0A0F1030AD4464FF0010ADE
:1016E0000AFA09FAAAF1010A0AEA020A0AFA0CFA43
:1016F0004FF0010B0BFA0CFBABF1010B0BEA030BE8
:101700004AEA0B042146404602F008FDBDE8F09F7E
:1017100000BF00F00702064B19684FF6FF0319409F
:10172000044B0B4343EA0221014B196000BF704791
:101730000CED00E00000FA05012001490862704745
:1017400000000E422DE9F04706464FF00008002544
:1017500000270024A146012E31D0022E56D0102E93
:101760005FD132484468006800F0807008B33048A8
:10177000C4F38341475C04F4803078B12B4840685F
:10178000C0F340402B4911F8008004F4803040B190
:101790002948B0FBF8F000FB07F502E0274807FBFB
:1017A00000F52248406800F48000B0F5800F01D1B8
:1017B000A94603E068000321B0FBF1F932E01B48C1
:1017C000046A04F44070B0F5807F05D104F0020093
:1017D00010B14FF4004918E004F44070B0F5007FF8
:1017E00007D11248406A00F0020010B149F64049A2
:1017F0000BE004F44070B0F5407F06D10B48006860
:1018000000F4003008B14FF224490BE000F08CF9ED
:1018100006494968C1F38131491C4900B0FBF1F91F
:1018200000E000BF00BF4846BDE8F087001002405E
:101830008A5A00089A5A000800127A0000093D00EE
:10184000F8B5044600260025207800F001000028A5
:101850006BD000274348C06900F0805070B900BFCA
:101860004048C06940F080503E49C8610846C069A0
:1018700000F08050009000BF00BF01273A48006888
:1018800000F48070B0B93848006840F48070364980
:101890000860FFF7A5FC064606E0FFF7A1FC801BE9
:1018A000642801D90320F8BD2F48006800F4807037
:1018B0000028F2D02B48006A00F440752DB3A088B0
:1018C00000F44070A84220D02648006A20F44075F9
:1018D000012026490860002008602248056205F0C2
:1018E000010090B1FFF77CFC064608E0FFF778FCAA
:1018F000801B41F28831884201D90320D3E719487F
:10190000006A00F002000028F0D01648006A20F4B7
:1019100040706168084313490862012F04D10846EA
:10192000C06920F08050C86100BF207800F002003C
:10193000022807D10B48406820F44040A1680843C2
:1019400008494860207800F01000102807D10548A9
:10195000406820F48000E1680843024948600020A4
:10196000A1E7000000100240007000404004424225
:1019700070B504460D460CB9012070BD5A48006888
:1019800000F00700A8420ED25748006820F0070078
:101990002843554908600846006800F00700A8423F
:1019A00001D00120E9E7207800F0020002281DD1D3
:1019B000207800F00400042805D14C48406840F429
:1019C000E0604A494860207800F00800082805D106
:1019D0004648406840F46050444948604348406885
:1019E00020F0F000A168084340494860207800F0EA
:1019F000010078B36068012806D13C48006800F413
:101A0000003090B90120B8E76068022806D1374855
:101A1000006800F0007040B90120AEE7334800686C
:101A200000F0020008B90120A7E73048406820F024
:101A30000300616808432D494860FFF7D1FB064663
:101A400009E0FFF7CDFB801B41F28831884202D9C3
:101A5000032092E707E02548406800F00C00616829
:101A6000B0EB810FEDD12048006800F00700A842DC
:101A70000ED91D48006820F0070028431A49086065
:101A80000846006800F00700A84201D0012074E772
:101A9000207800F00400042807D11448406820F49E
:101AA000E060E168084311494860207800F00800D0
:101AB000082808D10D48406820F46050216940EAA8
:101AC000C1000A49486000F03FF808494968C1F37D
:101AD0000311074A515CC84006490860064800687F
:101AE000FFF778FD002048E7002002400010024088
:101AF0009C5A0008E0050020D80500200148006835
:101B000070470000E005002000B5FFF7F7FF04492B
:101B10004968C1F30221034A515CC84000BD00007E
:101B200000100240AC5A000800B5FFF7E7FF044977
:101B30004968C1F3C221034A515CC84000BD00009E
:101B400000100240AC5A000870B5002100220024A9
:101B500000230020134D696801F00C05F5B1042D38
:101B600002D0082D19D101E00F4819E00F4DC1F343
:101B70008346AB5D01F4803555B10A4D6D68C5F300
:101B800040450B4E725D084D5D43B5FBF2F402E03B
:101B9000084D03FB05F4204602E000BF024800BFE9
:101BA00000BF70BD0010024000127A00785A000891
:101BB000885A000800093D00F8B504460CB9012018
:101BC000F8BD207800F00100002878D0F84840687F
:101BD00000F00C0004280CD0F548406800F00C0020
:101BE000082811D1F248406800F48030B0F5803FF9
:101BF0000AD1EF48006800F4003000285FD0606828
:101C000000285CD10120DBE700BF6068B0F5803FB1
:101C100006D1E748006840F48030E549086028E0D4
:101C2000606858B9E248006820F48030E0490860F4
:101C30000846006820F4802008601AE06068B0F56B
:101C4000A02F0BD1DA48006840F48020D849086002
:101C50000846006840F4803008600AE0D448006814
:101C600020F48030D24908600846006820F48020C3
:101C7000086000BF606888B1FFF7B2FA054606E069
:101C8000FFF7AEFA401B642801D9032098E7C84843
:101C9000006800F400300028F2D010E0FFF7A0FA4E
:101CA000054606E0FFF79CFA401B642801D9032093
:101CB00086E7BF48006800F400300028F2D12078A1
:101CC00000F00200022857D1B948406800F00C002B
:101CD00050B1B748406800F00C00082818D1B4484B
:101CE000406800F4803098B9B148006800F0020004
:101CF00020B12069012801D0012061E7AC480068CB
:101D000020F0F800616940EAC100A949086033E0A9
:101D10002069E8B10120A7490860FFF761FA05468C
:101D200006E0FFF75DFA401B022801D9032047E7D0
:101D30009F48006800F002000028F2D09C4800682C
:101D400020F0F800616940EAC1009949086013E099
:101D5000002098490860FFF743FA054606E0FFF7C0
:101D60003FFA401B022801D9032029E79048006868
:101D700000F002000028F2D1207800F008000828C6
:101D80002DD1A069B8B101208B490860FFF728FA6E
:101D9000054606E0FFF724FA401B022801D903207C
:101DA0000EE78348406A00F002000028F2D00120CC
:101DB00001F016FC13E000207F490860FFF710FADD
:101DC000054606E0FFF70CFA401B022801D9032064
:101DD000F6E67748406A00F002000028F2D1207849
:101DE00000F00400042873D100277148C06900F096
:101DF000805070B900BF6E48C06940F080506C4997
:101E0000C8610846C06900F08050009000BF00BF64
:101E100001276A48006800F48070B0B9674800681C
:101E200040F4807065490860FFF7DAF9054606E07E
:101E3000FFF7D6F9401B642801D90320C0E65F48AC
:101E4000006800F480700028F2D000BFE06801282C
:101E500006D15748006A40F001005549086227E062
:101E6000E06858B95248006A20F001005049086201
:101E70000846006A20F00400086219E0E0680528BE
:101E80000BD14B48006A40F00400494908620846FB
:101E9000006A40F0010008620AE04548006A20F04C
:101EA0000100434908620846006A20F00400086205
:101EB00000BFE068A0B1FFF793F9054609E0FFF71E
:101EC0008FF9401B41F28831884202D9032077E61E
:101ED00022E03748006A00F002000028EFD012E04C
:101EE000FFF77EF9054608E0FFF77AF9401B41F25B
:101EF0008831884201D9032062E62D48006A00F04B
:101F000002000028F0D1012F05D12948C06920F036
:101F100080502749C86100BFE069C8B324484068C1
:101F200000F00C00082860D0E069022848D10020A9
:101F300020490866FFF754F9054606E0FFF750F917
:101F4000401B022801D903203AE61948006800F036
:101F500000700028F2D1206AB0F5803F07D1144804
:101F6000406820F40030A168084311494860D4E972
:101F7000080108430E49496821F4741108430C49CB
:101F8000486001200B490866FFF72AF9054607E07B
:101F90003DE0FFF725F9401B022801D903200FE699
:101FA0000348006800F000700028F2D02FE0000025
:101FB0000010024000004242800442420070004093
:101FC000002014490866FFF70BF9054606E0FFF705
:101FD00007F9401B022801D90320F1E50E480068EB
:101FE00000F000700028F2D111E0E069012800D172
:101FF000E6E50948466806F48031206A814204D14A
:1020000006F47011606A814201D00120D8E50020F9
:10201000D6E50000000042420010024070B50446C0
:1020200000250CB9012070BD607C20B9002020740F
:10203000204600F053F802206074204600F06EF84D
:1020400018B1042060740120EDE7204601F0DCFAAD
:1020500018B1042060740120E5E72068406820F092
:10206000070021684860A06828B11B48006820F07C
:102070000100194908601848001F006820F46070CA
:10208000A16808431449091F08606068401C08B132
:10209000656809E00120FFF755FB05461DB90420DE
:1020A00060740120BFE76D1EC5F30340216888609E
:1020B000A8B22168C860204601F0C3FA18B1042014
:1020C00060740120AFE70021E17301216173A17306
:1020D000012060740020A6E7306C004038B504464B
:1020E0000B492068884212D1FFF726FB00BF094840
:1020F000C06940F000600749C8610846C06900F047
:102100000060009000BF00BF01200349086038BD97
:1021100000280040001002403C04424270B50446D2
:1021200000250CB9012070BD2068406820F008002F
:1021300021684860FFF754F8054607E0FFF750F8BC
:10214000401BB0F57A7F01D90320ECE72068406896
:1021500000F008000028F1D00020E4E770B5044644
:102160002546681EB0F1807F01D301200FE0681E74
:102170004FF0E02148610F214FF0FF3001F0CEFF1A
:1021800000204FF0E021886107200861002070BD29
:1021900010B50346002200BF93F83C00012801D18E
:1021A000022010BD012083F83C0000BF22F0FF0098
:1021B000CC6840EA040222F440708C6840EA0402D1
:1021C00022F480604C6840EA040222F400600C684B
:1021D00040EA040222F480500C6940EA040222F42E
:1021E00000504C6940EA040222F48040CC6940EA85
:1021F00004021868426400BF002083F83C0000BF5E
:1022000000BFCEE730B502460B4600BF92F83C0057
:10221000012801D1022030BD012082F83C0000BF1E
:10222000022082F83D00106844681068816824F03C
:1022300070041868044310684460104D1068A84288
:102240000BD01068B0F1804F07D00D4D1068A84238
:1022500003D00C4D1068A84205D121F080015868C8
:10226000014310688160012082F83D0000BF00201A
:1022700082F83C0000BF00BFCDE70000002C014009
:10228000000400400008004010B504460CB90120CD
:1022900010BD94F83D0028B9002084F83C00204689
:1022A00000F026F8022084F83D00211D206801F08E
:1022B00015FB012084F8460000BF84F83E00012190
:1022C0003F200155402001554120015500BF00BF6E
:1022D000012084F842004320015544200155452047
:1022E000015500BF012084F83D000020D0E7000028
:1022F00008B5094A016891420DD100BF07498969B3
:1023000041F40061054A91611146896901F4006157
:10231000009100BF00BF08BD002C0140001002402A
:102320002DE9F04104460D46002700BF94F83C001B
:10233000012802D10220BDE8F081012084F83C0090
:1023400000BF022084F83D002068866826F07706EA
:1023500026F47F46206886602868502833D00CDC3D
:10236000202850D004DC00284BD0102851D149E05F
:10237000302849D040284CD139E060282DD0702831
:1023800007D0B0F5805F03D0B0F5005F41D10DE01C
:1023900041E0D5E902136A68206801F0EAFA206892
:1023A000866846F077062068866034E0D5E9021337
:1023B0006A68206801F0DDFA2068806840F4804097
:1023C0002168886027E0EA686968206801F0A2FB5C
:1023D0005021206801F0D8FA1DE0EA686968206899
:1023E00001F0ABFB6021206801F0CEFA13E0EA684F
:1023F0006968206801F08EFB4021206801F0C4FA72
:1024000009E000BF00BF00BF2968206801F0BCFAE6
:1024100001E0012700BF00BF012084F83D0000BF9C
:10242000002084F83C0000BF384684E710B586B031
:102430000446002002900390049005900E49206805
:10244000884216D100BF0D48806940F004000B4956
:1024500088610846806900F00400019000BF00BF59
:102460008815029002200390059002A90448FEF707
:102470000FFD06B010BD0000002C0140001002400E
:10248000000801402DE9F04104460D46164600279C
:1024900000BF94F83C00012802D10220BDE8F08181
:1024A000012084F83C0000BF36B1042E1BD0082E5A
:1024B00031D00C2E5ED145E02946206801F06EFA3D
:1024C0002068806940F00800216888612068806980
:1024D00020F0040021688861206880692969084328
:1024E0002168886148E02946206801F087FA206861
:1024F000806940F40060216888612068806920F468
:1025000080602168886120688069296940EA01202B
:102510002168886130E02946206801F0A3FA20682C
:10252000C06940F008002168C8612068C06920F0D7
:1025300004002168C8612068C069296908432168CE
:10254000C86119E02946206801F0C0FA2068C06916
:1025500040F400602168C8612068C06920F4806090
:102560002168C8612068C069296940EA01202168A2
:10257000C86101E0012700BF00BF00BF002084F850
:102580003C0000BF384689E710B504460CB901206D
:1025900010BD94F83D0028B9002084F83C00204686
:1025A00000F025F8022084F83D00211D206801F08C
:1025B00095F9012084F8460000BF84F83E0001210F
:1025C0003F200155402001554120015500BF00BF6B
:1025D000012084F842004320015544200155452044
:1025E000015500BF012084F83D000020D0E770476E
:1025F00070B504460D4615B994F83E000BE0042D65
:1026000002D13F20005D06E0082D02D14020005D90
:1026100001E04120005D012801D0012070BD1DB9FD
:10262000022084F83E000EE0042D03D102213F2059
:10263000015508E0082D03D102214020015502E098
:1026400002214120015501222946206801F080F92C
:1026500019492068884201D1012000E0002028B1FA
:102660002068406C40F400402168486412492068AA
:1026700088420BD02068B0F1804F07D00F49206806
:10268000884203D00E49206888420CD120688068B7
:1026900000F00706062E0CD02068006840F001000C
:1026A0002168086005E02068006840F001002168AA
:1026B00008600020B2E70000002C01400004004048
:1026C00000080040704770B5044600252068406946
:1026D000C0F3C01594F84100212817D1B5B100BF4F
:1026E00000BF2168143151E8001F21F080002168EB
:1026F000143141E80002002AF3D100BFA06B10B1F1
:10270000A06BFEF7DDF9204601F00FFB2068406961
:10271000C0F3801594F84200222817D1B5B100BF4C
:1027200000BF2168143151E8001F21F040002168EA
:10273000143141E80002002AF3D100BFE06B10B170
:10274000E06BFEF7BDF9204601F0A9FA002070BD4C
:10275000704700002DE9F84F04462068056820689E
:10276000C668206847694FF00009CA4605F00F099E
:10277000B9F1000F0AD105F0200038B106F02000B1
:1027800020B1204601F0E4FABDE8F88FB9F1000F5E
:102790007BD007F0010018B906F49070002874D0BF
:1027A00005F0010030B106F4807018B1606C40F0A3
:1027B0000100606405F0040030B107F0010018B1B9
:1027C000606C40F00200606405F0020030B107F078
:1027D000010018B1606C40F00400606405F008006E
:1027E00048B106F0200010B907F0010018B1606C84
:1027F00040F008006064606C002845D005F02000BF
:1028000028B106F0200010B1204601F0A1FA20689E
:102810004069C0F3801A606C00F0080010B9BAF18A
:10282000000F2CD0204601F03AFA2068406900F0F1
:10283000400000B300BF00BF2168143151E8001F01
:1028400021F040002168143141E80002002AF3D150
:1028500000BFE06B50B17748E16B4863E06BFEF777
:102860005BF988B1E06B416B88470DE02046FFF7CC
:102870006FFF09E009E02046FFF76AFF04E0204609
:10288000FFF766FF002060647EE7206B012877D1A8
:1028900005F01000002873D006F010000028FAD0D0
:1028A00000BF002000902068006800902068406809
:1028B000009000BF00BF2068406900F04000002881
:1028C0005FD0E06B006840681FFA80F8B8F1000F35
:1028D00055D0A08D404552DDA4F82E80E06B806974
:1028E000202843D000BF00BF21680C3151E8001FF1
:1028F00021F4807021680C3141E80002002AF3D1F4
:1029000000BF00BF00BF2168143151E8001F21F053
:1029100001002168143141E80002002AF3D100BF10
:1029200000BF00BF2168143151E8001F21F04000B2
:102930002168143141E80002002AF3D100BF2020B1
:1029400084F842000020206300BF00BF21680C31E2
:1029500051E8001F21F0100021680C3141E800020D
:10296000002AF3D100BFE06BFEF7AAF802206063F3
:10297000A08DE28D801A81B22046FFF7A3FE03E707
:1029800042E0A08DE18D401A1FFA80F8E08DD0B3AF
:10299000B8F1000F37D000BF00BF21680C3151E8FB
:1029A000001F21F4907021680C3141E80002002AD8
:1029B000F3D100BF00BF00BF2168143151E8001FF0
:1029C00021F001002168143141E80002002AF3D10E
:1029D00000BF202084F842000020206300BF00BF19
:1029E00021680C3151E8001F21F0100021680C31E2
:1029F00041E80002002AF3D100BF02206063414693
:102A00002046FFF75FFEBFE605F0800030B106F01C
:102A1000800018B1204601F0FBFAB5E605F0400051
:102A200030B106F0400018B1204601F06EF9ABE677
:102A300000BFA9E6633B000810B504460CB90120AD
:102A400010BDA06900B100E000BF94F8410028B9B2
:102A5000002084F84000204600F02AF8242084F862
:102A600041002068C06820F400502168C8602046FA
:102A700001F0ECF92068006920F4904021680861B9
:102A80002068406920F02A00216848612068C068F9
:102A900040F400502168C86000206064202084F861
:102AA000410084F842000020606300BFC8E70000D6
:102AB00010B586B004460020029003900490059063
:102AC0005249206888422FD100BF5148806940F4A4
:102AD00080404F4988610846806900F48040019039
:102AE00000BF00BF00BF0846806940F00400886155
:102AF0000846806900F00400019000BF00BF48153F
:102B00000290022003900320059002A94148FEF79D
:102B1000BFF94FF48060029000200390049002A956
:102B20003C48FEF7B5F96EE03B49206888426AD11F
:102B300000BF3748C06940F400303549C8610846D5
:102B4000C06900F40030019000BF00BF00BF08461C
:102B5000806940F0040088610846806900F0040044
:102B6000019000BF00BF04200290022003900320C8
:102B7000059002A92748FEF78BF908200290002053
:102B80000390049002A92348FEF782F923482449C0
:102B90000860002048600021214881608021C160D8
:102BA000002101614161202181610021C161FEF7A5
:102BB000D9F808B1FDF783FF00BF1948E06344620C
:102BC00000BF1648143017490860102048600021E3
:102BD000144881608021C1600021016141618161EF
:102BE000C161FEF7BFF808B1FDF769FF00BF0D48EE
:102BF000A063446200BF002201212620FEF74AFDA7
:102C00002620FEF737FD06B010BD00000038014059
:102C10000010024000080140004400406C000240E7
:102C2000B8090020FC09002070B504460D46164680
:102C300094F8420020280BD105B10EB9012070BDD7
:102C40000020206332462946204601F07DF9F6E750
:102C50000220F4E77047704710B5044604488442E8
:102C600004D14FF480510348FEF7AAFA10BD0000CA
:102C700070090020000C014000BFFEE70146086813
:102C80004069C0F38020B0B16FF480600A68506181
:102C900000200863202081F83D00002081F83E00DC
:102CA000086C40F00400086400BF002081F83C007C
:102CB00000BF012070470020FCE700002DE9F84329
:102CC0000446884615469946DDE90867206800688D
:102CD00040F4807021680860334600224FF00111F3
:102CE0002046009700F08DF860B12068006800F47D
:102CF0008070B0F5807F02D14FF400702064032013
:102D0000BDE8F88308F0FE00216808613B463246C2
:102D10002149204600F0D4F808B10120F0E700BFB7
:102D20000020009020684069009020688069009031
:102D300000BF00BF3A463146204600F03EF950B190
:102D4000206C042805D12068006840F400702168D8
:102D500008600120D4E7B9F1010F03D1E8B221687E
:102D6000086117E0C5F30720216808613A4631463B
:102D7000204600F022F950B1206C042805D12068CB
:102D8000006840F40070216808600120B8E7E8B2EC
:102D9000216808610020B3E70200010070B5044615
:102DA0000D46164625E02046FFF768FF08B10120D2
:102DB00070BD681CE8B1FEF713FA801BA84200D86A
:102DC000BDB920684069C0F3800090B9002020633D
:102DD000202084F83D00002084F83E00206C40F064
:102DE0002000206400BF002084F83C0000BF0120C8
:102DF000DEE720684069C0F380000028D3D00020BF
:102E0000D6E72DE9F04104460D4617461E46DDF88B
:102E1000188038E0701CA8B3FEF7E2F9A0EB0800B8
:102E2000B04200D876BBC5F3074001280AD120681C
:102E30004069A9B20840A9B2884201D101200BE043
:102E4000002009E020688069A9B20840A9B2884240
:102E500001D1012000E00020B84214D100202063FD
:102E6000202084F83D00002084F83E00206C40F0D3
:102E70002000206400BF002084F83C0000BF012037
:102E8000BDE8F081FFE7C5F3074001280AD12068BB
:102E90004069A9B20840A9B2884201D101200BE0E3
:102EA000002009E020688069A9B20840A9B28842E0
:102EB00001D1012000E00020B842ABD00020DFE7C4
:102EC0002DE9F04104460D4616461F4658E020689D
:102ED0004069C0F38020E8B12068006840F40070C9
:102EE000216808606FF480602168486100202063D9
:102EF000202084F83D00002084F83E00206C40F043
:102F00000400206400BF002084F83C0000BF0120C2
:102F1000BDE8F081701C90B3FEF762F9C01BB042AF
:102F200000D866BBC5F3074001280AD12068406974
:102F3000A9B20840A9B2884201D101200BE00020CB
:102F400009E020688069A9B20840A9B2884201D18D
:102F5000012000E0002090B900202063202084F8A8
:102F60003D00002084F83E00206C40F020002064EA
:102F700000BF002084F83C0000BF0120C8E7FFE745
:102F8000C5F3074001280AD120684069A9B208406A
:102F9000A9B2884201D101200BE0002009E020689D
:102FA0008069A9B20840A9B2884201D1012000E09D
:102FB000002000288BD00020AAE770B504460D46FB
:102FC000164625E02046FFF759FE08B1012070BDE6
:102FD000681CE8B1FEF704F9801BA84200D8BDB90F
:102FE00020684069C0F3C01090B900202063202001
:102FF00084F83D00002084F83E00206C40F0200062
:10300000206400BF002084F83C0000BF0120DEE700
:1030100020684069C0F3C0100028D3D00020D6E754
:1030200008B500BF0E48406940F001000C494861F6
:103030000846406900F00100009000BF00BF002278
:1030400001211020FEF726FB1020FEF713FB0022C3
:1030500001211120FEF71EFB1120FEF70BFB08BD1E
:103060000010024000B585B000200190029003904E
:10307000049000BF2248806940F020002049886108
:103080000846806900F02000009000BF00BF00BF2C
:103090000846806940F0040088610846806900F0B5
:1030A0000400009000BF00BF00BF0846806940F0E8
:1030B000080088610846806900F00800009000BFA1
:1030C00000BF00224FF400410E48FEF783F84FF492
:1030D000004001900120029002200390049001A979
:1030E0000848FDF7D5FE382001900020029001200D
:1030F000039001A90448FDF7CBFE05B000BD000018
:103100000010024000080140000C014010B50B48BF
:103110000B4908600B484860002109488160C16084
:103120004FF480410161002141618161C16101620F
:10313000FEF75CF808B1FDF7C2FC10BD005400407A
:1031400078080020A086010010B5084808490860EA
:103150004FF0FF3048604FF4807105488160FEF702
:103160005DFF08B1FDF7ABFC10BD0000002800407A
:10317000CC08002000B595B000201190129013905B
:1031800014900F9010901C2108A8FCF7E2FF20215A
:103190006846FCF7DEFF2C482C4908604720486051
:1031A00000212A4881604FF47A71C16000210161D9
:1031B000416180218161FFF767F808B1FDF77FFC6D
:1031C0004FF48050119011A92048FFF7A9F808B1D9
:1031D000FDF775FC1D48FFF7D7F908B1FDF76FFC47
:1031E00000200F9010900FA91848FFF70BF808B1B6
:1031F000FDF765FC602008904FF4FA7009900020FC
:103200000A900B900C900D900E90002208A90F4888
:10321000FFF738F908B1FDF752FC0020009001904B
:103220000290039004904FF4005005900020079006
:1032300069460648FEF7ACFF08B1FDF740FC0348BD
:10324000FFF7F4F815B000BD002C0140E0080020A5
:1032500010B50B480B4908604FF4E130486000217D
:1032600008488160C16001610C21416100218161D8
:10327000C161FFF7E1FB08B1FDF721FC10BD0000C3
:10328000003801402809002010B50B480B490860A0
:103290004FF416504860002108488160C160016108
:1032A0000C21416100218161C161FFF7C5FB08B1BB
:1032B000FDF705FC10BD000000440040700900202F
:1032C00000BFFEE7704770B5002415E004F1B001BF
:1032D000C8B200F05BF9002000F058F9102000F0AF
:1032E00055F9002504E0002000F064F9681CC5B21F
:1032F000802DF8DB601CC4B2082CE7DB70BD000039
:103300003EB5002400BF0FE04FF480710122084851
:1033100020441346CDE90121009000227821054880
:10332000FEF74CF8601CC4B21B2CEDDB3EBD000068
:10333000400500207808002070B504460D4605F1D0
:10334000B001C8B200F022F9102141EA141000F0D7
:103350001DF904F00F0000F019F970BD2DE9F041DE
:1033600005460F4616464FF0000829463846FFF737
:10337000E3FF00240BE0134A02EB8611085D00F026
:1033800019F908F1010000F0FF08601CC4B2102C0C
:10339000F1DB681CC1B23846FFF7CEFF00240DE018
:1033A0007100491C074A02EB4111085D00F002F967
:1033B00008F1010000F0FF08601CC4B2102CEFDB24
:1033C000BDE8F081000000202DE9F04707460E46D9
:1033D0009046994600250024A8F12000C5B27F2F11
:1033E00002DD0027B01CC6B2B9F1100F22D1314660
:1033F0003846FFF7A1FF002407E004EB0511174A48
:10340000505C00F0D7F8601CC4B2082CF5DB701CCF
:10341000C1B23846FFF790FF002408E004EB051125
:1034200008310E4A505C00F0C5F8601CC4B2082C8C
:10343000F4DB11E031463846FFF77EFF002409E057
:1034400005EB4501064A02EB4101085D00F0B2F8C8
:10345000601CC4B2062CF3DBBDE8F087885400087A
:10346000605200082DE9FF5F074691461E460E9DFB
:103470004FF0000A002435E0301B401EC1B20A2084
:1034800001F0EEFDB9FBF0F00A21B0FBF1F201FB17
:103490001208BAF1000F14D1701EA04211DDB8F16C
:1034A000000F0CD1AB4605EBDB71491001FB047139
:1034B000C8B22B4620220199FFF786FF10E04FF09B
:1034C000010AAB4605EBDB71491001FB0471C8B280
:1034D00008F13001CAB22B460199FFF775FF00BF12
:1034E000601CC4B2B442C7DBBDE8FF9F2DE9F041C8
:1034F00004460F461546984600260FE0AA5D43464F
:1035000039462046FFF760FF04F10800C4B2782C6A
:1035100002DD0024B81CC7B2701CC6B2A85D00282A
:10352000ECD1BDE8F08100002DE9FE4304460E46D3
:10353000154699462846FDF772F807463A460B4667
:103540000FA1684600F0CEFD00212846FDF7B8F82F
:103550000ED24B460CA231462046FFF7C7FF04F1BE
:103560000801C8B24B466A463146FFF7BFFF05E087
:103570004B466A4631462046FFF7B8FFBDE8FE835A
:10358000252E3266000000002000000001B584B046
:103590004FF48070012104AA0B46CDE9002102906E
:1035A000002278210248FDF709FF05B000BD0000A8
:1035B0007808002001B584B04FF48070012104AA7E
:1035C0000B46CDE900210290402278210248FDF708
:1035D000F5FE05B000BD000078080020704700002F
:1035E00008B508490968C9084FF47A72B1FBF2F1CD
:1035F0004143009100BF00BF00994A1E009200297C
:10360000F9D108BDE005002070B504460025FDF79E
:10361000E7FD054607E0FDF7E3FD401BB0F57A7FC7
:1036200001D9032070BD2068406800F02000002808
:10363000F1D02068406840F0100021684860002008
:10364000F0E770B5044600252068406820F01000BF
:1036500021684860FDF7C4FD054607E0FDF7C0FDA1
:10366000401BB0F57A7F01D9032070BD2068406807
:1036700000F020000028F1D00020F6E7704710B5D8
:10368000FDF788FF10BD00B593B0282109A8FCF70D
:1036900060FD142104A8FCF75CFD0020009001905F
:1036A00002900390092009904FF480300A90002086
:1036B0000B9001200D900F9002201090C1031191EA
:1036C0004FF4E011129109A8FEF776FA08B1FDF760
:1036D000F6F90F20049002200590002006904FF488
:1036E0008060079000200890022104A8FEF740F9AE
:1036F00008B1FDF7E4F9012000904002019068460E
:10370000FEF79EF808B1FDF7DAF913B000BD704777
:103710002DE9F04F95B082468B465D48C0F800A079
:103720005C495846FCF78BFD1190FCF778FF0022AE
:10373000594BCDE91201FCF761FE8046574A584BC0
:10374000FCF762FE06460022564BFCF7B6FD044627
:10375000FCF790FF54490860084601684C4800682F
:10376000FCF76DFD51490860002149480068FCF7ED
:10377000A7FF0CD846480068FCF751FF04464C4AA6
:103780004C4BFCF75FFF02D20020484908604A48D2
:103790000068FCF744FFCDE9100144480068FCF7DD
:1037A0003EFF04463D4A5242444BFCF72DFECDE914
:1037B0000A013E480068FCF732FF06460F463B48C8
:1037C0000068FCF72CFF04463D4A3E4BFCF71CFE0C
:1037D000804632463B46FCF717FECDE906013348EA
:1037E0000068FCF71CFF8046894630480068FCF7FB
:1037F00016FF06460F462D480068FCF710FF0446EA
:10380000314A324BFCF700FE32463B46CDE900011F
:10381000FCF7FAFD42464B46CDE90201FCF7F4FD08
:10382000CDE90401DDE90623FCF7E8FDCDE9080157
:10383000DDE90A23FCF741FD0022254BCDE90C010F
:10384000FCF7E2FDCDE90E01DDE91023FCF7DCFD1C
:10385000CDE91201FCF70EFF1E49086000211D484A
:103860000068FCF723FF02D800201A4908601A49B3
:1038700018480068FCF724FF02D217481549086071
:1038800014480068FCF7B7FE15B0BDE8F08F0000E3
:10389000B005002000002041000039407B14AE47F5
:1038A000E17A943F0000F03FB4050020B805002005
:1038B0009A9999999999B93FCC0500201ECB8A40D5
:1038C000EC51B81E85FB6F403D0AD7A370AD604038
:1038D0000000E03FC40500200000AF4410B50268BE
:1038E000184B984208D0B0F1804F05D0164B984243
:1038F00002D0164B984203D122F070024B681A4353
:10390000104B984208D0B0F1804F05D00E4B984232
:1039100002D00E4B984203D122F44072CB681A4376
:1039200022F080034C6943EA040202608B68C362A0
:103930000B688362034B984201D10B690363012337
:10394000436110BD002C014000040040000800400D
:1039500030B501F01F05012404FA05F3046A9C4305
:103960000462046A01F01F0502FA05F52C430462A3
:1039700030BD30B50C46816821F47F4142EA032511
:1039800025432943816030BD0A46816821F07001DA
:1039900042F00703194381607047000030B5026AA6
:1039A000056A25F0010505624368846924F0700406
:1039B00024F003040D682C4322F002028D682A4390
:1039C0000D4DA84206D100BF22F00802CD682A435F
:1039D00022F00402084DA84207D123F4807323F497
:1039E00000734D692B438D692B43436084614D689F
:1039F0004563026230BD0000002C014030B5026A10
:103A0000056A25F0100505624368846924F4E044E2
:103A100024F440740D6844EA052422F020028D68E5
:103A200042EA05120E4DA84207D100BF22F08002E3
:103A3000CD6842EA051222F04002094DA84209D1A0
:103A400023F4806323F400634D6943EA85038D69A1
:103A500043EA8503436084614D688563026230BD3B
:103A6000002C014030B5026A056A25F480750562B4
:103A70004368C46924F0700424F003040D682C43E7
:103A800022F400728D6842EA05220F4DA84207D148
:103A900000BF22F40062CD6842EA052222F480626F
:103AA000094DA84209D123F4805323F400534D69F2
:103AB00043EA05138D6943EA05134360C4614D6809
:103AC000C563026230BD0000002C014030B5036ABE
:103AD000056A25F4805505624468C26922F4E04213
:103AE00022F440720D6842EA052223F400538D68E7
:103AF00043EA0533064DA84204D124F480444D69BD
:103B000044EA85144460C2614D680564036230BDB7
:103B1000002C014030B50B461446026A056A25F0B8
:103B200001050562816921F0F00141EA041122F0EA
:103B30000A021A438161026230BD30B50B46144659
:103B4000026A056A25F010050562816921F4704159
:103B500041EA043122F0A00242EA031281610262CA
:103B600030BD70B505466C6A0020E085E0842046D3
:103B7000FEF7EEFD70BD70B506460025746A20683C
:103B80004069C0F3C01594F84100212805D125B142
:103B90000020E084204600F0C8F820684069C0F3A7
:103BA000801594F84200222805D125B10020E08537
:103BB000204600F074F8606C40F01000606420460D
:103BC000FEF7C6FD70BD70B505466C6A28680068D2
:103BD00000F02000002842D1E08500BF00BF21682E
:103BE0000C3151E8001F21F4807021680C3141E84C
:103BF0000002002AF3D100BF00BF00BF21681431CA
:103C000051E8001F21F001002168143141E8000251
:103C1000002AF3D100BF00BF00BF2168143151E872
:103C2000001F21F040002168143141E80002002A01
:103C3000F3D100BF202084F84200206B01280ED170
:103C400000BF00BF21680C3151E8001F21F01000B7
:103C500021680C3141E80002002AF3D100BF0020A6
:103C60006063206B012804D1A18D2046FEF72AFD58
:103C700002E02046FEF7EEFF70BD70B505466C6AA7
:103C800001206063206B012805D1A08D41082046EA
:103C9000FEF718FD02E02046FEF7DDFF70BD00BF15
:103CA00000BF02680C3252E8002F22F490710268C3
:103CB0000C3242E80013002BF3D100BF00BF00BF5D
:103CC0000268143252E8002F22F001010268143217
:103CD00042E80013002BF3D100BF016B01290ED184
:103CE00000BF00BF02680C3252E8002F22F0100122
:103CF00002680C3242E80013002BF3D100BF2021F0
:103D000080F8421000210163704710B50446206816
:103D1000C06820F040002168C860202084F841007D
:103D20002046FEF799FF002010BD00BF00BF0268CB
:103D30000C3252E8002F22F0C00102680C3242E837
:103D40000013002BF3D100BF202180F841107047F1
:103D5000F8B5044694F84200222875D1A068B0F561
:103D6000805F0CD1206950B90025A66A20684068A0
:103D7000C0F308003080A06A801CA06215E0A56A2C
:103D80000026A068B0F5805F03D0A06828B920693C
:103D900018B920684068287004E02068406800F086
:103DA0007F002870A06A401CA062E08D401E80B297
:103DB000E085002846D12068C06820F020002168F6
:103DC000C8602068C06820F480702168C8602068DE
:103DD000406920F0010021684861202084F84200F9
:103DE00000206063206B012826D10020206300BFE3
:103DF00000BF21680C3151E8001F21F0100021683C
:103E00000C3141E80002002AF3D100BF20680068AD
:103E100000F0100010280AD100BF00200090206898
:103E20000068009020684068009000BF00BFA18D2E
:103E30002046FEF747FC02E02046FEF70BFF00207D
:103E4000F8BD01E00020FBE70220F9E770B5044669
:103E50002168096921F44051E26811432268116127
:103E60002269A1681143626941EA02052168C968B3
:103E700041F20C62914329432268D160216849696B
:103E800021F44071A2691143226851612D4A2168D1
:103E9000914202D1FDF748FE01E0FDF735FE00EB4F
:103EA000C00101EB001162689200B1FBF2F100EB7E
:103EB000C00202EB001263689B00B2FBF3F26423C2
:103EC000B2FBF3F202EBC20303EB0212A1EB82019D
:103ED000322202EB01116422B1FBF2F101F0F00198
:103EE00000EBC00202EB001263689B00B2FBF3F22E
:103EF0006423B2FBF3F201EB021200EBC00101EB11
:103F0000001163689B00B1FBF3F100EBC00303EB0E
:103F100000136668B600B3FBF6F36426B3FBF6F352
:103F200003EBC30606EB0313A1EB8301322303EB80
:103F300001116423B1FBF3F101F00F011144226878
:103F4000916070BD0038014077B581B004461546D8
:103F50000298A062A58500206064222084F84200B7
:103F60002848E16B88622848E16BC8622748E16B0A
:103F700008630020E16B486302AE32682368191DB4
:103F80002B46E06BFCF722FF00BF0020009020686A
:103F90000068009020684068009000BF00BF206962
:103FA00070B100BF00BF21680C3151E8001F41F41F
:103FB000807021680C3141E80002002AF3D100BF73
:103FC00000BF00BF2168143151E8001F41F001001B
:103FD0002168143141E80002002AF3D100BF00BF7C
:103FE00000BF2168143151E8001F41F040002168F2
:103FF000143141E80002002AF3D100BF002004B0D0
:1040000070BD0000C73B00087B3C0008773B000800
:10401000014691F84100212828D18868B0F5805FD9
:104020000BD1086948B90A6A1088C0F308000B6808
:104030005860086A801C086205E00B6A581C086218
:1040400018780B685860C88C401E80B2C88458B974
:104050000868C06820F080000B68D8600868C068F5
:1040600040F040000B68D860002070470220FCE759
:1040700038B51648FEF76EFB1448006814498842AC
:1040800023D1124800680068C0F30010E8B100BFF7
:10409000002000900D480068006800900B48006800
:1040A0004068009000BF00BF0848FEF70CFB0948BD
:1040B00000684468C4F1FF000749087000200870D8
:1040C000FF2206490148FEF7AFFD38BD7009002008
:1040D00000440040B8090020D005002078070020E7
:1040E00000BFFEE70FB4084B10B504A902AA03985D
:1040F00000F0FEF8044602A9002000F090FC2046E3
:1041000010BC5DF814FB00001F4A0008024800685C
:10411000C0F30220704700000CED00E010B500284D
:1041200004DB0A07130E054A135406E00A07140EAF
:10413000034A00F00F031B1FD45410BD00E400E03D
:1041400018ED00E000487047E405002002E008C8D0
:10415000121F08C1002AFAD170477047002001E001
:1041600001C1121F002AFBD1704700002DE9FF5F3B
:1041700082B00021DDE90430020DDDF840B00343D8
:1041800018D044F61050A2F2FF3242431514119891
:1041900001281FD0A5EB0B00401C5FEA000A4FF07E
:1041A00000064E4FDFF83891B046504615D5CAF19B
:1041B000000413E0119801244AA3012801D16FEAF9
:1041C0000B010298119AC0E90031C0E9024206B021
:1041D000BDE8F09FCBF10000DFE704460021404A34
:1041E000491842EB0450CDE9001012E0E00707D077
:1041F00032463B4640464946FCF706F9804689462A
:1042000032463B4610461946FCF7FEF806460F4676
:104210006410002CEAD1DDE90401DDE90023BAF1E4
:10422000000F06DAFCF7F0F842464B46FCF7ECF8D4
:1042300005E0FCF75BF942464B46FCF757F90446AC
:104240000E460022284BFCF7ADFB03D84FF0FF30A1
:10425000014607E00022254B20463146FCF72DF8A9
:10426000FCF787FB102409E0002C0ADB0A2200235C
:10427000FCF746FA039B30321A55641E50EA0102DD
:10428000F2D1641C039AC4F111031444119A012A57
:1042900003D0012208430DD10AE0084304D00020D6
:1042A0004FF0110B119072E7A3EB0B056D1E0DE0A3
:1042B0005B4504DD4FF0000205F1010504E003DA7F
:1042C0004FF00002A5F10105002AECD002981199E7
:1042D000C0E90231C0E9004579E700000000144060
:1042E0000000F03F300000000000F0430000E03F1D
:1042F0002DE9FF4F95B09B468946064600250FE203
:10430000252877D100242746F84A0121059400E0AA
:10431000044316F8013F203B01FA03F01042F7D1A5
:1043200030782A2811D06FF02F033078A0F13002B6
:10433000092A16D8059A44F0020402EB820203EB24
:1043400042021044761C0590EFE759F8042B0592C1
:10435000002A03DA504244F40054059044F0020469
:10436000761C30782E2816D116F8010F44F004047C
:104370002A280DD06FF02F023078A0F13003092BDE
:1043800009D807EB870302EB4303C718761CF3E752
:1043900059F8047B761C30786C280FD006DC4C284A
:1043A00017D068280DD06A2814D104E0742810D0E2
:1043B0007A280FD10DE044F400140AE044F480148C
:1043C00001E044F440147278824202D104F5801472
:1043D000761C761C307866280BD013DC582877D0F2
:1043E00009DC002875D04528F6D04628F4D04728A7
:1043F0001AD19DE118E0632835D0642879D065286A
:1044000012D195E1702873D008DC6728F1D06928B3
:104410006FD06E280DD06F2806D1B5E073282CD050
:10442000752875D0782874D05A46179990476D1C16
:1044300075E1C4F30250022809D003280DD0D9F841
:10444000001004280DD00D6009F1040967E1D9F8C6
:104450000010EA17C1E90052F6E7D9F800100D8004
:10446000F2E70D70F0E719F8041B8DF8001000203A
:104470008DF80100EA46012003E059F804AB4FF043
:10448000FF3061074FF0000102D40DE008F1010197
:104490008846B9420FDA8045F8DB1AF8081000297F
:1044A000F4D108E008F1010188468142FADB1AF8EC
:1044B00008100029F6D105985B46A0EB08072146B5
:1044C0003846179A00F094FA284400EB080507E0F4
:1044D0004DE029E10DE01AF8010B5A461799904773
:1044E000B8F10108F7D25B4621463846179A13E126
:1044F00042E00A220092C4F302524FF0000A022A5C
:1045000008D059F804CB032A4FEAEC710AD00DE029
:1045100029E02AE009F1070121F00702F2E802C1CF
:10452000914609E00FFA8CFC4FEAEC71042A03D1A2
:104530004FFA8CFC4FEAEC71002907DA0A46002199
:10454000DCF1000C61EB02012D2202E0220504D512
:104550002B228DF80420012203E0E20701D0202263
:10456000F7E7904659E00A2102E010220DE0102101
:104570004FF0000A00910BE010224FF0000A44F0C7
:1045800004040827009203E008224FF0000A00927A
:10459000C4F30252022A05D059F804CB0021032AA1
:1045A00008D009E009F1070121F00702F2E802C191
:1045B000914605E01FFA8CFC042A01D10CF0FF0C97
:1045C0004FF00008220728D5702806D0009B83F002
:1045D000100353EA0A0305D00EE040228DF80420B0
:1045E000012208E05CEA010206D030228DF80420A6
:1045F0008DF8050002229046009B83F0080353EAE1
:104600000A030AD15CEA010201D1620705D5302212
:104610008DF804204FF001087F1E582804D034A0E4
:1046200003900EA802900DE036A0F9E753466046CD
:10463000009AFCF765F884460398825C0298401E55
:10464000029002705CEA0100F0D1029806A9081AF3
:1046500000F1200A600702D524F4803400E001272D
:10466000574502DDA7EB0A0000E0002000EB0A013D
:10467000009005984144401A0590E00306D45B463B
:104680002146179A059800F0B3F90544002706E083
:1046900001A85A46C05D179990476D1C7F1C47457D
:1046A000F6DBE0030CD55B462146179A059800F02F
:1046B0009FF9054404E030205A46179990476D1C35
:1046C0000099481E00900029F5DC08E00298029944
:1046D0005A460078491C0291179990476D1CBAF10F
:1046E0000001AAF1010AF1DC65E1000009280100DE
:1046F0003031323334353637383961626364656658
:104700000000000030313233343536373839414219
:10471000434445460000000000F058F90544761C6B
:10472000307800287FF4ECAD19B02846BDE8F08F52
:10473000620700D4062709F1070222F0070CFCE803
:104740000223E14603F000485FEA080C02D00FF2B2
:10475000702C0DE05FEA045C02D50FF2682C07E0D4
:104760005FEAC47C02D00FF2602C01E0AFF2700C63
:104770004FF0FF3823F00043CDF850C065280CD02F
:1047800006DC452809D046281DD047283DD13DE00C
:10479000662818D067287ED138E00021112F01DB70
:1047A000112000E0781CCDE9000106A90EA8FFF752
:1047B000DDFCDDE90F010E9A03910021009207F163
:1047C000010A04914DE04FF000400097CDE901103F
:1047D00006A90EA8FFF7CAFCDDE90F0203920E9BA3
:1047E00011990022DDF80CA00093049211B9791CF4
:1047F00000EB010AB7EB0A0004D4C0F1FF3007F167
:10480000010A0490AAEB0700019044E0012F00DAAE
:1048100001270021112F01DD112000E03846CDE9EC
:10482000000106A90EA8FFF7A1FCDDE90F010E9A11
:104830000391002104910092BA4621070CD40399F8
:10484000514500DA8A46BAF1010F05DD009AAAF156
:104850000101515C302908D0B84202DA10F1040F8E
:1048600006DA0121CDE9011015E0AAF10101E9E71D
:10487000002805DC049901440491AAEB000102E040
:10488000411C514500DD8A460499401A401C0190A4
:104890004FF000400290200704D40198504501DBFE
:1048A000CDF8048000208DF84F0002980DF14F07DD
:1048B000B0F1004F25D02B200E9002984FF0020847
:1048C00000280CDA404202902D200E9007E00A21C9
:1048D0000298FBF7FFFE3031029007F8011DB8F196
:1048E0000001A8F10108F2DC02980028EFD1791E3E
:1048F0000E980870307800F0200040F0450007F86E
:10490000020D12A8C01B00F107081498007800B12E
:10491000012000EB0A01019801EBE0710598414488
:10492000401A401E0590E00306D45B462146179AC4
:10493000059800F05DF805441498007818B15A46BF
:10494000179990476D1CE00324D55B462146179AC2
:10495000059800F04DF805441CE00498002807DB9A
:10496000DDE90301884203DD0098405C179901E00E
:10497000179930205A469047049805F10105401CCC
:1049800004900198401E019004D12E205A46179998
:1049900090476D1CBAF10001AAF1010ADDDC05E0C7
:1049A00017F8010B5A46179990476D1CB8F1000192
:1049B000A8F10108F4DC5B462146179A0598ABE69E
:1049C0002D0000002B000000200000002DE9F04128
:1049D000044600251E461746880404D405E03946DF
:1049E0002020B0476D1C641EF9D52846BDE8F08133
:1049F0002DE9F041044600251E469046C80301D526
:104A0000302700E02027880404D505E041463846D9
:104A1000B0476D1C641EF9D52846BDE8F0810A68D0
:104A2000531C0B601070704708B5FCF7BFFDFEF714
:104A30002AFEFEF717FBFEF7F3FAFEF785FBFEF7FB
:104A400007FCFEF797FBFEF761FBFEF71DFC40F24B
:104A50006C70FCF709FAFEF753FCFEF734FC1023E8
:104A6000FEA200210846FEF741FD0021FE48FDF7A9
:104A7000BFFDFE480068C06840F01000FB490968AF
:104A8000C860FF22FA49F948FEF7CEF8D8E20A22B8
:104A9000F849F748FBF768FBF749086008460068E3
:104AA000F649884202D90846F3490860F24800688E
:104AB000F349B0FBF1F04FF47A714843EE490968CD
:104AC000F04AB1FBF2F10A22B1FBF2F302FB13113F
:104AD00001EBC10202EB011100EB8100E64909681C
:104AE000E94AB1FBF2F10A22B1FBF2F302FB131126
:104AF00001EB810100EB4100DF49096842F21072CD
:104B0000B1FBF2F10A22B1FBF2F302FB13114418DC
:104B10002046FBF75AFDDD490860D74800684FF48E
:104B20007A71B0FBF1F00A21B0FBF1F201FB120047
:104B30004FF47A714843D04909686422B1FBF2F11D
:104B40000A22B1FBF2F302FB131101EBC10202EBEB
:104B5000011100EB8100C84909680A22B1FBF2F19A
:104B6000B1FBF2F302FB131101EB810100EB4100F9
:104B7000C1490968B1FBF2F302FB13114418204646
:104B8000FBF723FDC24908600A22C249B948006800
:104B9000FBF7EAFAC049086008460068FBF71AFD0F
:104BA00080460022BD4BFBF72FFC06460022BC4B83
:104BB000FBF79CFC0446FBF75DFDBA490860202129
:104BC000B948FCF7F5FA68B900BF2021B648FCF7F0
:104BD000EFFA0028F9D0B5480068401CB3490860D6
:104BE000FEF771FBB1480068022802D90020AF49E6
:104BF0000860AE48006800287ED1002211461046A9
:104C0000FEF7ACFB012210210020FEF7A7FB0222D9
:104C100020210020FEF7A2FB032230210020FEF716
:104C20009DFB10200823009093480021026840203B
:104C3000FEF718FC042200210220FEF78FFB05225C
:104C400010210220FEF78AFB994990480068FBF783
:104C5000C4FA0546934801682846FEF759FD044604
:104C6000102004232246022100902020FEF7FAFBA8
:104C7000102390A202214220FEF738FC8F4984487D
:104C80000068FBF71DFD02D28C48814908608C4901
:104C90007F480068FBF7D3FA8246FBF7C0FC064664
:104CA0000022884BFBF7B0FB044600221346FBF7BB
:104CB00004FB8046FBF7DEFC83490860102383A2D7
:104CC00004210020FEF712FC10237F480421026813
:104CD0001820FEF729FC10237DA204214820FEF7AE
:104CE00005FC132200210620FEF738FB14221021B8
:104CF0000620FEF733FB00E00FE010236948062191
:104D000002682020FEF710FC102373A20621502019
:104D1000FEF7ECFB00F0B0F992E16448006801286E
:104D20005DD1072200210846FEF718FB082210215A
:104D30000020FEF713FB092220210020FEF70EFBC6
:104D4000042200210220FEF709FB05221021022087
:104D5000FEF704FB0C2220210220FEF7FFFA0D22B1
:104D600030210220FEF7FAFA0A2240210220FEF743
:104D7000F5FA0B2250210220FEF7F0FA102004234E
:104D800000905648194602680020FEF76BFB102180
:104D90004548FCF70DFA28B950480068401C4F49B7
:104DA00008604DE108214048FCF702FA28B94B4859
:104DB0000068401E4949086042E148480068B0F573
:104DC000AF6F04DD4FF4AF604449086038E14348F9
:104DD00000680028A0DA00204049086030E133482C
:104DE0000068022898D1072200210846FEF7B6FA8B
:104DF000082210210020FEF7B1FA12222021002003
:104E0000FEF7ACFA102336A202210020FEF76EFB5B
:104E10000C2212210220FEF7A1FA0D2222210220EB
:104E2000FEF79CFA0A2232210220FEF797FA0B22A3
:104E300042210220FEF792FA0E2200210420FEF702
:104E40008DFA102211460420FEF788FA0F22002165
:104E50000620FEF783FA1022114643E048656C6C89
:104E60006F576F726C640000E0080020700900202A
:104E7000780700209805002090050020FFE0F50548
:104E80008096980040420F00A0860100A0050020F7
:104E9000A40500209C050020940500200000F03FA0
:104EA00000005940A8050020000C01406C050020BE
:104EB0006F12833A6D672F4C0000000000004845D8
:104EC00000007A4400000C40AC05002050483A0035
:104ED0006D6F6C2A4C2D3100430000005C050020F2
:104EE000504800000620FEF739FA102355480421E7
:104EF00002682120FEF718FB1023534806210268A0
:104F00002120FEF711FB10215048FCF751F9B0B9F0
:104F100008214E48FCF74CF988B900BF10214B48D6
:104F2000FCF746F928B908214848FCF741F9002860
:104F3000F4D047480068401C4549086006E04448F2
:104F40000068012802DD00204149086040480068EF
:104F500080BB10213D48FCF72BF970B93948006837
:104F6000FBF75DFB06463B4A3B4BFBF7A6F90446C5
:104F7000FBF780FB3349086012E008213348FCF757
:104F800017F968B92F480068FBF749FB0646314A14
:104F9000314BFBF733FA0446FBF76CFB29490860F9
:104FA000112250210420FEF7D9F906225021104683
:104FB000FEF7D4F926480068012830D11021234893
:104FC000FCF7F6F870B920480068FBF728FB0646A6
:104FD000204A214BFBF771F90446FBF74BFB1A49BA
:104FE000086012E008211948FCF7E2F868B9164891
:104FF0000068FBF714FB0646164A174BFBF7FEF951
:105000000446FBF737FB10490860062250210420B4
:10501000FEF7A4F9112250210620FEF79FF90F4850
:105020000068B0F5AF6F04DD4FF4AF600B49086066
:1050300006E00A480068002802DA002007490860F4
:1050400025E500006005002064050020000C0140FB
:10505000680500209A9999999999B93F5C050020B3
:1050600010B50246012000E050430B1EA1F10104DF
:10507000E1B2F9D110BD000010B570497048006868
:10508000FBF7ABF804466F4801682046FEF740FB8B
:105090006D490968884228D9FF216C48FBF759F807
:1050A0000122D1036A48FCF795F84FF49670FBF79C
:1050B000DBFE00224FF400416548FCF78BF86420CA
:1050C000FBF7D2FE0122D1036148FCF783F84FF4CD
:1050D0009670FBF7C9FE00224FF400415C48FCF7D4
:1050E00079F86420FBF7C0FEA7E05A4801685A48E7
:1050F0000068FBF7E5FA48D2FF215448FBF729F88E
:105100000122D1035248FCF765F86420FBF7ACFE9E
:1051100000224FF400414E48FCF75CF86420FBF796
:10512000A3FE0122D1034A48FCF754F86420FBF7A0
:105130009BFE00224FF400414548FCF74BF86420E9
:10514000FBF792FE0122D1034148FCF743F86420AB
:10515000FBF78AFE00224FF400413D48FCF73AF885
:105160006420FBF781FE0122D1033948FCF732F8B5
:105170006420FBF779FE00224FF400413448FCF72D
:1051800029F86420FBF770FE57E034480168324884
:105190000068FBF78BFA48D2FF212C48FAF7D9FFB9
:1051A0000122D1032A48FCF715F86420FBF75CFEC6
:1051B00000224FF400412648FCF70CF86420FBF76E
:1051C00053FE0122D1032248FCF704F86420FBF7C8
:1051D0004BFE00224FF400411D48FBF7FBFF64200B
:1051E000FBF742FE0122D1031948FBF7F3FF6420CD
:1051F000FBF73AFE00224FF400411548FBF7EAFFA7
:105200006420FBF731FE0122D1031148FBF7E2FFD6
:105210006420FBF729FE00224FF400410C48FBF705
:10522000D9FF6420FBF720FE07E0FF210748FAF7CB
:1052300090FF4FF4FA70FBF717FE10BD6F12833A20
:10524000A0050020A80500205C05002078070020AC
:105250000008014060050020AC0500206405002026
:105260000000000000000000002F00000000070008
:10527000070000147F147F1400242A7F2A12006282
:10528000640813230036495522500000050300002E
:1052900000001C224100000041221C000014083EB6
:1052A00008140008083E0808000000A0600000087C
:1052B00008080808000060600000002010080402D0
:1052C000003E5149453E0000427F4000004261518E
:1052D0004946002141454B31001814127F10002728
:1052E00045454539003C4A494930000171090503EB
:1052F00000364949493600064949291E000036361C
:10530000000000005636000000081422410000147E
:10531000141414140000412214080002015109065B
:1053200000324959513E007C1211127C007F4949DC
:105330004936003E41414122007F4141221C007F0D
:1053400049494941007F09090901003E4149497A1B
:10535000007F0808087F0000417F41000020404195
:105360003F01007F08142241007F40404040007F01
:10537000020C027F007F0408107F003E4141413E45
:10538000007F09090906003E4151215E007F09198D
:1053900029460046494949310001017F0101003F8A
:1053A0004040403F001F2040201F003F4038403F0A
:1053B000006314081463000708700807006151496E
:1053C000454300007F41410000552A552A55000001
:1053D00041417F000004020102040040404040407F
:1053E000000001020400002054545478007F484417
:1053F000443800384444442000384444487F00384E
:105400005454541800087E0901020018A4A4A47C76
:10541000007F080404780000447D40000040808440
:105420007D00007F102844000000417F4000007C88
:1054300004180478007C0804047800384444443894
:1054400000FC242424180018242418FC007C0804E0
:10545000040800485454542000043F444020003CB9
:105460004040207C001C2040201C003C4030403C40
:10547000004428102844001CA0A0A07C00446454D0
:105480004C44141414141414000000000000000014
:105490000000000000000000000000F80000000014
:1054A000000000333000000000100C06100C060055
:1054B000000000000000000040C07840C0784000BC
:1054C000043F04043F040400007088FC083000001E
:1054D000001820FF211E0000F008F000E018000076
:1054E00000211C031E211E0000F00888700000002F
:1054F0001E2123241927211010160E000000000081
:105500000000000000000000000000E0180402009D
:10551000000000071820400000020418E00000000E
:105520000040201807000000404080F0804040000C
:105530000202010F01020200000000F00000000062
:105540000101011F01010100000000000000000036
:1055500080B07000000000000000000000000000AB
:105560000001010101010101000000000000000034
:1055700000303000000000000000000080601804CF
:10558000006018060100000000E010080810E000AC
:10559000000F102020100F00001010F80000000075
:1055A0000020203F202000000070080808887000BC
:1055B000003028242221300000300888884830003C
:1055C0000018202020110E000000C02010F800005C
:1055D00000070424243F240000F8088888080800F5
:1055E0000019212020110E0000E01088881800000A
:1055F000000F112020110E0000380808C8380800DC
:105600000000003F0000000000708808088870005B
:10561000001C222121221C0000E010080810E000DC
:105620000000312222110F00000000C0C000000065
:10563000000000303000000000000080000000008A
:105640000000806000000000000080402010080082
:10565000000102040810200040404040404040004B
:105660000404040404040400000810204080000026
:105670000020100804020100007048080808F0002B
:105680000000003036010000C030C828E810E000FB
:105690000718272423140B000000C038E000000086
:1056A000203C23020227382008F8888888700000F0
:1056B000203F202020110E00C030080808083800C4
:1056C000071820202010080008F808080810E0003B
:1056D000203F202020100F0008F88888E8081000DC
:1056E000203F20202320180008F88888E8081000B0
:1056F000203F200003000000C030080808380000E8
:1057000007182020221E020008F808000008F808E8
:10571000203F210101213F20000808F8080800006F
:105720000020203F2020000000000808F8080800A2
:10573000C08080807F00000008F888C0281808001A
:10574000203F20012638200008F808000000000053
:10575000203F20202020300008F8F800F8F808004A
:10576000203F003F003F200008F830C00008F80844
:10577000203F200007183F00E01008080810E00054
:105780000F10202020100F0008F808080808F0006B
:10579000203F210101010000E01008080810E0008E
:1057A0000F18242438504F0008F888888888700023
:1057B000203F2000030C30200070880808083800C3
:1057C0000038202121221C00180808F808081800B9
:1057D0000000203F2000000008F808000008F8083A
:1057E000001F202020201F000878880000C83808EB
:1057F000000007380E010000F80800F80008F80063
:10580000033C0700073C03000818688080681808FC
:1058100020302C03032C30200838C800C83808007A
:105820000000203F2000000010080808C8380800C9
:105830002038262120201800000000FE020202006D
:105840000000007F40404000000C30C0000000001D
:10585000000000010638C00000020202FE00000045
:10586000004040407F0000000000040202020400EB
:105870000000000000000000000000000000000028
:105880008080808080808080000202040000000010
:105890000000000000000000000080808080000008
:1058A0000019242222223F2008F8008080000000F6
:1058B000003F112020110E000000008080800000B9
:1058C000000E112020201100000000808088F800C8
:1058D000000E112020103F200000808080800000FA
:1058E000001F222222221300008080F0888888185E
:1058F0000020203F20200000000080808080800069
:10590000006B94949493600008F8008080800000FD
:10591000203F210000203F200080989800000000D8
:105920000020203F20200000000000809898000008
:1059300000C08080807F000008F800008080800028
:10594000203F24022D302000000808F8000000004D
:105950000020203F20200000808080808080800008
:10596000203F20003F20003F80800080808000009A
:10597000203F210000203F20000080808080000028
:10598000001F202020201F00808000808000000059
:1059900080FFA12020110E00000000808080800088
:1059A000000E112020A0FF80808080008080800079
:1059B00020203F21200001000000808080808000A6
:1059C0000033242424241900008080E0808000001B
:1059D0000000001F20200000808000000080800068
:1059E000001F202020103F208080800000808080C9
:1059F00000010E3008060100808000800080808059
:105A00000F300C030C300F0000808000808080007D
:105A10000020312E0E3120008080800000808080A8
:105A200080818E7018060100008080808080800058
:105A30000021302C2221300000000000807C020276
:105A400000000000003F404000000000FF00000098
:105A500000000000FF0000000002027C8000000047
:105A60000040403F00000000000601010202040463
:105A700000000000000000000203040506070809FA
:105A80000A0B0C0D0E0F101001020203040506078D
:105A900008090A0B0C0D0E0F101001020000000087
:105AA00000000000010203040607080900000000CE
:105AB000010203040040404040404040404041411A
:105AC00041414140404040404040404040404040D3
:105AD000404040404005020202020202020202026D
